:100000000C94DF000C9407010C9407010C94070179
:100010000C9407010C9407010C9407010C94070140
:100020000C9407010C9407010C9407010C94070130
:100030000C9407010C9407010C9407010C94070120
:100040000C94CC020C9407010C94E6030C94C003AE
:100050000C9407010C9407010C9407010C94070100
:100060000C94F20A0C94070100407A10F35A00A095
:10007000724E18090010A5D4E80000E87648170071
:1000800000E40B54020000CA9A3B000000E1F505B1
:10009000000080969800000040420F000000A086FB
:1000A00001000000102700000000E803000000002D
:1000B0006400000000000A000000000001000000D1
:1000C00000002C76D888DC674F0823DFC1DFAE59EB
:1000D000E1B1B796E5E3E453C63AE651997696E87E
:1000E000E6C28426EB898C9B62ED407C6FFCEFBC02
:1000F0009C9F40F2BAA56FA5F490055A2AF75C932D
:100100006B6CF9676DC11BFCE0E40D47FEF520E662
:10011000B500D0ED902E0300943577050080841E45
:10012000080000204E0A000000C80C333333330FA0
:10013000986E12831141EF8D2114893BE65516CF3D
:10014000FEE6DB18D1844B381BF77C1D901DA4BB49
:10015000E424203284725E228100C9F124ECA1E5FE
:100160003D2700000000240027002A0000000000B6
:10017000250028002B000000000023002600290095
:10018000040404040404040402020202020203033D
:100190000303030301020408102040800102040845
:1001A00010200102040810200000000800020100D5
:1001B0000003040700000000000000005C1111248F
:1001C0001FBECFEFD8E0DEBFCDBF14E0A0E0B1E0AE
:1001D000ECEFF2E302C005900D92A238B107D9F717
:1001E00026E0A2E8B4E001C01D92AD35B207E1F708
:1001F00010E0CFEDD0E004C02197FE010E947B14F7
:10020000CE3DD107C9F70E94FA0C0C947C190C94CE
:100210000000CF92DF92EF92FF920F931F93CF9344
:10022000DF936C017A018B01C0E0D0E0CE15DF05D1
:1002300081F0D8016D918D01D601ED91FC91019075
:10024000F081E02DC6010995892B11F02196EECFA2
:100250007E01C701DF91CF911F910F91FF90EF9029
:10026000DF90CF900895FC01538D448D252F30E011
:10027000842F90E0821B930B541710F0CF960895B3
:1002800001970895FC01918D828D981761F0828D00
:10029000DF01A80FB11D5D968C91928D9F5F9F73BA
:1002A000928F90E008958FEF9FEF0895FC01918D5C
:1002B000828D981731F0828DE80FF11D858D90E0C9
:1002C00008958FEF9FEF0895FC01918D228D892F66
:1002D00090E0805C9F4F821B91098F73992708954E
:1002E00080E095E00E94640121E0892B09F420E080
:1002F000822F0895FC01848DDF01A80FB11DA35A40
:10030000BF4F2C91848D90E001968F739927848F35
:10031000A689B7892C93A089B1898C918370806458
:100320008C93938D848D981306C00288F389E02DF9
:1003300080818F7D80830895EF92FF920F931F93AA
:10034000CF93DF93EC0181E0888F9B8D8C8D981388
:1003500005C0E889F989808185FD26C0F62E0B8DC0
:1003600010E00F5F1F4F0F731127E02E8C8DE812E6
:100370000CC00FB607FCFACFE889F989808185FFA8
:10038000F5CFCE010E947A01F1CF8B8DFE01E80FEF
:10039000F11DE35AFF4FF0829FB7F8940B8FEA8963
:1003A000FB89808180620AC09FB7F894EE89FF893B
:1003B0006083E889F98980818370806480839FBF2E
:1003C00081E090E0DF91CF911F910F91FF90EF902E
:1003D0000895CF93DF93EC01888D8823C9F0EA89D3
:1003E000FB89808185FD05C0A889B9898C9186FD2E
:1003F0000FC00FB607FCF5CF808185FFF2CFA8892B
:10040000B9898C9185FFEDCFCE010E947A01E7CFAB
:10041000DF91CF91089580E090E0892B29F00E9430
:10042000700181110C940000089521E001C0220F99
:100430006A95EAF7DC011C962C931C971A965C933C
:100440004E931997ED91FC910484F585E02D60E0C1
:100450000994DC01ED91FC910684F785E02D41E0E3
:10046000099581E090E0089508950895089580E049
:1004700090E008958F929F92AF92BF92CF92DF92B9
:10048000EF92FF928090860490908704A090880459
:10049000B090890420E030E048EC52E4609182049E
:1004A0007091830480918404909185040E94F314D8
:1004B000A50194010E944B166B017C0120E030E005
:1004C00040E85FE30E94EE1487FF06C0C12CD12CE8
:1004D00080E8E82E8FE3F82EA5019401C701B6014C
:1004E0000E9482146093D6047093D7048093D8043A
:1004F0009093D904A7019601C501B4010E9481140B
:100500006093D0047093D1048093D2049093D30469
:10051000FF90EF90DF90CF90BF90AF909F908F9023
:1005200008950E94BD160F931F93CF93DF93062F5C
:100530000F70423019F440E0602F0EC0142FEC0110
:1005400070E084E0759567958A95E1F7CE010E9489
:10055000C20A412F602FCE01DF91CF911F910F91E1
:100560000C94C20AFC0184858823A9F02185328578
:100570002115310519F4611106C007C0213031057C
:1005800021F4611102C0858701C015866585CF0100
:100590000E960C949F0A08951F920F920FB60F9219
:1005A00011242F933F938F939F93AF93BF93809189
:1005B000DF049091E004A091E104B091E204309155
:1005C000DE0423E0230F2D3720F40196A11DB11D79
:1005D00005C026E8230F0296A11DB11D2093DE045D
:1005E0008093DF049093E004A093E104B093E204CD
:1005F0008091E3049091E404A091E504B091E604B5
:100600000196A11DB11D8093E3049093E404A0938F
:10061000E504B093E604BF91AF919F918F913F9114
:100620002F910F900FBE0F901F90189561157105B7
:1006300079F0FB0101900020E9F73197AF01461BEB
:10064000570BDC01ED91FC910280F381E02D0994C0
:1006500080E090E008950C94160381E691E00E94FA
:10066000A2088091D50460E0882391F081E00E9487
:10067000B50863E08DE995E00E94290261E081E020
:100680000E94B5086FE074E08DE995E00C942B03AF
:1006900081E00E94B5086FE074E08DE995E00E946A
:1006A0002B0361E081E00E94B50863E08DE995E0ED
:1006B0000C942902EF92FF920F931F93CF93DF9335
:1006C000CDB7DEB764970FB6F894DEBF0FBECDBFCF
:1006D0008CE891E00E94A2086091DA047091DB043A
:1006E0008091DC049091DD049E012F5F3F4F7901E2
:1006F000890121E041E00E94BB1120E030E040E2AE
:1007000051E46091DA047091DB048091DC049091F3
:10071000DD040E94EE14065F1F4F87FF11C0FF9299
:10072000EF9280EB91E09F938F931F930F930E9422
:10073000C9160F900F900F900F900F900F9004C05C
:10074000B701C8010E94C21661E08AE00E94B508A4
:1007500064EB71E08DE995E00E942B03B8018DE90F
:1007600095E00E942B0364960FB6F894DEBF0FBE8F
:10077000CDBFDF91CF911F910F91FF90EF90089522
:100780001F920F920FB60F9211242F933F934F9306
:100790005F936F937F938F939F93AF93BF93EF93E9
:1007A000FF9380E095E00E947A01FF91EF91BF9165
:1007B000AF919F918F917F916F915F914F913F91F9
:1007C0002F910F900FBE0F901F9018951F920F92B0
:1007D0000FB60F9211242F938F939F93EF93FF9354
:1007E000E0911005F09111058081E0911605F091DE
:1007F000170582FD12C09081809119058F5F8F735C
:1008000020911A05821751F0E0911905F0E0E050AF
:10081000FB4F958F8093190501C08081FF91EF9167
:100820009F918F912F910F900FBE0F901F90189551
:10083000DC01ED91FC910684F785E02D40E0099400
:1008400061E00E9418048BE39FE10197F1F708959E
:100850000F931F93CF93DF93CDB7DEB76E970FB68D
:10086000F894DEBF0FBECDBF8091B6049091B7045F
:100870008130910509F4E9C00CF07EC0892B09F0A4
:10088000A5C187EB91E00E94A2088DE995E00E9446
:10089000200460E080E00E94B5086FEC71E08DE913
:1008A00095E00E942B0361E080E00E94B50861EDB5
:1008B00071E08DE995E00E942B036091D004709166
:1008C000D1048091D2049091D3048E010B5E1F4F0E
:1008D00021E041E00E94BB116091D6047091D704E1
:1008E0008091D8049091D9040A50110921E041E087
:1008F0000E94BB11609186047091870480918804E6
:10090000909189040A50110921E041E00E94BB1135
:1009100060E083E00E94B50860E08DE995E00E9408
:100920002902BE016B5E7F4F8DE995E00E942B038B
:1009300061E083E00E94B50861E08DE995E00E94E6
:100940002902BE01655F7F4F8DE995E00E942B0370
:1009500060E08AE00E94B50863ED71E08DE995E002
:100960000E942B03B8018DE995E00E942B030E94A1
:100970002D030E945A032AC18230910509F4A4C0B4
:10098000039709F023C186ED91E00E94A2088DE84B
:1009900092E00E94A2088DE995E00E94200460E0A8
:1009A00080E00E94B50860E472E08DE995E00E9465
:1009B0002B0360E08FE00E94B50864E472E08DE9EB
:1009C00095E00E942B0360E084E00E94B50863EB91
:1009D00072E08DE995E00E942B0361E085E00E94C2
:1009E000B508609186047091870480918804909185
:1009F00089040E94FD0860918604709187048091AB
:100A00008804909189040E94FD0861E085E00E94BD
:100A1000B508609186047091870480918804909154
:100A200089048E010F5F1F4F21E041E00E94BB113E
:100A3000B8018DE995E00E942B0362E08DE995E015
:100A40000E9429026CEB72E08DC086ED91E00E945D
:100A5000A2088CEF91E00E94A2088DE995E00E9427
:100A6000200460E080E00E94B50860E472E08DE957
:100A700095E00E942B0360E08FE00E94B50864E4DB
:100A800072E08DE995E00E942B0360E083E00E9414
:100A9000B5086CE272E08DE995E00E942B0380912D
:100AA0000001882319F067E372E002C06AE372E094
:100AB000CE0101960E94C21661E086E00E94B50850
:100AC000BE016F5F7F4F4EC086ED91E00E94A2088D
:100AD00086E492E00E94A2088DE995E00E9420043D
:100AE00060E080E00E94B50860E472E08DE995E086
:100AF0000E942B0360E08FE00E94B50864E472E07E
:100B00008DE995E00E942B0360E082E00E94B50829
:100B10006DE772E08DE995E00E942B0360918204FD
:100B20007091830480918404909185040E94FD0853
:100B300061E086E00E94B5086091820470918304B0
:100B400080918404909185048E010F5F1F4F20E0F7
:100B500041E00E94BB11B8018DE995E00E942B0392
:100B60006AE872E08DE995E00E942B038091B80459
:100B7000882341F160E080E00E94B5086FE074E0F6
:100B80008DE995E00E942B0360E08FE00E94B5089C
:100B90006FE074E08DE995E00E942B0361E080E056
:100BA0000E94B5086EE372E08DE995E00E942B0388
:100BB00061E08DE00E94B50862E472E08DE995E0A5
:100BC0000E942B0386ED91E00E94A2086E960FB65C
:100BD000F894DEBF0FBECDBFDF91CF911F910F9173
:100BE00008950F931F93CF93DF932091B604309114
:100BF000B7042230310579F02330310509F45AC0A9
:100C00002130310509F098C09091000181E08927D9
:100C10008093000191C00091820410918304D091CF
:100C20008404C0918504882319F120E030E048EC69
:100C300052E4B8018D2F9C2F0E94EE14882361F09E
:100C400020E030E040E85FE3B8018D2F9C2F0E9448
:100C500082148B01D82FC92FC801AD2FBC2F8093D0
:100C6000820490938304A0938404B09385041FC0EE
:100C700020E030E0A901B8018D2F9C2F0E94EE14D6
:100C8000882351F020E030E040E85FE3B8018D2F89
:100C90009C2F0E94811403C060E070E0CB01609340
:100CA00082047093830480938404909385040E944B
:100CB0003A0242C00091860410918704D0918804C2
:100CC000C09189048823A9F020E030E048E452E490
:100CD000B8018D2F9C2F0E94EE14882309F120E08B
:100CE00030E040E05FE3B8018D2F9C2F0E9482141A
:100CF00014C020E030E040E251E4B8018D2F9C2F79
:100D00000E94EE14882361F020E030E040E05FE3D1
:100D1000B8018D2F9C2F0E9481148B01D82FC92FD1
:100D2000C801AD2FBC2F8093860490938704A093B5
:100D30008804B0938904BBCFDF91CF911F910F91AD
:100D40000C9428040F931F93CF93DF93EC01423050
:100D500018F08C8188608C834F836887222329F068
:100D6000413019F48C8184608C8364E670E080E00B
:100D700090E00E94B40C6C8164FD31C0E881F9817F
:100D80000684F785E02D42E063E0CE0109958BE40F
:100D900096E40197F1F7E881F9810684F785E02D63
:100DA00042E063E0CE01099503E512E0C801019736
:100DB000F1F7E881F9810684F785E02D42E063E0F0
:100DC000CE010995C8010197F1F7E881F981068400
:100DD000F785E02D42E062E0CE01099517C0606220
:100DE000CE010E9418048BE496E40197F1F76C8120
:100DF0006062CE010E94180403E512E0C801019769
:100E0000F1F76C816062CE010E941804C80101975D
:100E1000F1F76C816062CE010E9418048BEE90E0C5
:100E20000197F1F784E08D836CE0CE010E941804F5
:100E3000CE010E94200482E08E8366E0CE010E94F3
:100E40001804E881F9810484F585E02D6FEFCE0167
:100E5000DF91CF911F910F910994EF92FF920F9321
:100E60001F93CF93DF93EC01062FF42EE22E8B8598
:100E7000888B1092E8041092E7041092F10410920B
:100E8000F3041092EF0411E01093EE041092ED04BD
:100E900061E082E10E94490C61E083E10E94490C1B
:100EA0008091B9008E7F8093B9008091B9008D7FC9
:100EB0008093B90088E48093B80085E48093BC00F7
:100EC0008AEC97E09093EA048093E9048BEC97E036
:100ED0009093EC048093EB0488891093F004809342
:100EE000F2041092F1041092F3040E94430A91E07C
:100EF000811190E0998B811105C084EF94E00E94EC
:100F0000DC078E878989882339F01F861C8260E080
:100F1000CE010E960E949F0A2E2D4F2D602FCE01DE
:100F2000DF91CF911F910F91FF90EF900C94A2064B
:100F300085ED8093BC008091BC0084FDFCCF1092B5
:100F4000EF0408954091F605262F30E0240F311D5F
:100F500021323105DCF42091EF042430C9F4FC0186
:100F600080E090E0861758F43091F6052191DC017D
:100F7000AA52BA4FA30FB11D2C930196F3CF8091C3
:100F8000F605680F6093F60580E0089581E0089506
:100F900082E00895089508950895E091E80480910D
:100FA000E704E81730F4F0E0EA54FA4F808190E06B
:100FB00008958FEF9FEF08959091E8048091E704E2
:100FC000981750F4E92FF0E0EA54FA4F208130E00E
:100FD0009F5F9093E80402C02FEF3FEFC90108958F
:100FE0008091E70490E02091E804821B9109089524
:100FF000CF92DF92EF92FF920F931F93CF93DF93E5
:101000007C01CB018A012091F004222389F0EB01BD
:101010006B01C40ED51ECC15DD0569F06991D701B1
:10102000ED91FC910190F081E02DC7010995F3CF7E
:10103000642F0E94A207C801DF91CF911F910F91E9
:10104000FF90EF90DF90CF900895CF93DF931F92A2
:10105000CDB7DEB769832091F0042223D1F020912F
:10106000F304203240F021E030E0FC01338322839E
:1010700080E090E015C08091F104E82FF0E0E35C9F
:10108000F94F998190838F5F8093F1048093F304EB
:1010900005C061E0CE0101960E94A20781E090E0C8
:1010A0000F90DF91CF910895833081F028F4813043
:1010B00099F08230A1F008958730A9F08830B9F016
:1010C0008430D1F4809180008F7D03C080918000B6
:1010D0008F7780938000089584B58F7702C084B5A0
:1010E0008F7D84BD08958091B0008F7703C080917B
:1010F000B0008F7D8093B00008953FB7F894809141
:10110000E3049091E404A091E504B091E60426B5CF
:10111000A89B05C02F3F19F00196A11DB11D3FBF2F
:10112000BA2FA92F982F8827820F911DA11DB11DBD
:10113000BC01CD0142E0660F771F881F991F4A95B9
:10114000D1F70895CF93DF93BC0180E095E00E9432
:101150001603EC0163E774E080E095E00E9416035B
:101160008C0F9D1FDF91CF9108950F931F93CF9305
:10117000DF93CDB7DEB728970FB6F894DEBF0FBE6A
:10118000CDBF0091210110912201209123013091C6
:1011900024010D831E832F83388700912501109130
:1011A0002601209127013091280109831A832B837E
:1011B0003C839091A405691710F06FEF690F40917F
:1011C000A505262F30E0FE01E20FF31F403121F488
:1011D000943011F4618101C06581680F60688DE908
:1011E00095E028960FB6F894DEBF0FBECDBFDF9115
:1011F000CF911F910F910C9418042F923F924F9210
:101200005F926F927F928F929F92AF92BF92CF9296
:10121000DF92EF92FF920F931F93CF93DF93CDB79F
:10122000DEB7A4970FB6F894DEBF0FBECDBF4B015B
:101230005C019B01AC010E94B816882319F066E797
:1012400074E01AC075016401E894F7F82FEF3FEFDE
:101250004FE75FE7C701B6010E94B816811112C0BF
:101260002FEF3FEF4FE75FE7C701B6010E94EE1493
:10127000181644F46AE774E080E095E00E941603D3
:101280008C01B3C02FEF3FEF4FE75FE4C501B4011E
:101290000E94461618161CF46EE774E0EDCF2FEF8F
:1012A0003FEF4FE75FECC501B4010E94EE1487FDEC
:1012B000F3CF20E030E0A901C501B4010E94EE1493
:1012C00087FF0BC06DE280E095E00E949C016C01FD
:1012D000B7FAB094B7F8B09402C0C12CD12C2AE070
:1012E00037ED43EA5BE3C501B4010E9482144B0170
:1012F0005C010E9465152B013C010E9494159B0125
:10130000AC01C501B4010E9481144B015C0119A21A
:101310007E0181E2E80EF11CEAA2FBA2C301B20148
:101320002AE030E040E050E00E94441429013A01F4
:10133000605DF70162937F01232B242B252B71F72E
:10134000BF0180E095E00E9416038C016EE280E010
:1013500095E00E949C01800F911F8C010C0D1D1DBA
:1013600083E0F82E9AE0292E312C412C512CFA944E
:10137000FF20D9F120E030E040E251E4C501B401A2
:101380000E944B164B015C010E9465159B0140E0D9
:1013900050E019A26AA07BA06CA3C32ED42EE52E28
:1013A000CA01B901A20191010E944414605DF301D8
:1013B00062933F01211531054105510589F7BF01B0
:1013C00080E095E00E941603080F191F6CA17C2D88
:1013D0008D2D9E2D0E9494159B01AC01C501B40179
:1013E0000E9481144B015C01C2CF63E774E080E08E
:1013F00095E00E941603800F911FA4960FB6F894F3
:10140000DEBF0FBECDBFDF91CF911F910F91FF9037
:10141000EF90DF90CF90BF90AF909F908F907F9094
:101420006F905F904F903F902F900895EF92FF92B2
:101430000F931F93CF93DF938B01877098E0899F61
:10144000B001112460648DE995E00E94180483E7DF
:1014500090E00197F1F7E801085F1F4F8BE9E82E54
:10146000F12C69918DE995E00E942902C70101974D
:10147000F1F7C017D107A9F7DF91CF911F910F9115
:10148000FF90EF9008953091F304313208F04BC093
:101490008091EF048111FCCF9091F20422E020931F
:1014A000EF0421E02093EE042FEF20933C061092EE
:1014B0003B0630933A06EDE3F6E0AAE1B6E020E021
:1014C000321721F041914D932F5FFACF10921906F8
:1014D00020911906990F922B909319069091ED0483
:1014E000913061F41092ED04909119069093BB0035
:1014F0009091BC0093FDF8CF95EC01C095EE9093D0
:10150000BC009091EF049230E1F390913C069F3F34
:1015100079F080913C06803241F080913C06803326
:1015200031F084E005C081E003C082E001C083E0C7
:101530001092F1041092F3041092F0040895FC014B
:1015400023812223B1F08181682B6083828191E025
:101550009093F0048093F2041092F1041092F3043B
:1015600084EF94E00E9425080E94430A282F30E06F
:1015700002C020E030E081E090E0232B11F080E019
:1015800090E00895EF92FF920F931F93CF938C01F9
:10159000FC0184E0C0E060FF02C09589C92B66951C
:1015A000815031968111F7CF413011F4F80144890F
:1015B000F8018585C82BC42B7801FEE0EF0EF11CE5
:1015C000F80162896C2BC7010E949F0AF8016289A9
:1015D00060956C23C701CF911F910F91FF90EF9001
:1015E0000C949F0A1F920F920FB60F9211242F9303
:1015F0003F934F935F936F937F938F939F93AF939B
:10160000BF93EF93FF938091B900887F803609F4F0
:101610009CC068F5883209F45BC090F4803109F40D
:1016200054C038F4882309F4F6C0883009F44DC05A
:10163000F6C0883109F44CC0803209F45DC0EFC0B7
:10164000803409F468C048F4803309F455C0883305
:1016500009F0E5C080933C06D8C0803509F44FC03E
:10166000883509F45DC0883409F0D9C0D6C08839FE
:1016700009F4C7C0A8F4883709F467C038F488367D
:1016800009F463C0803709F460C0C9C0883809F420
:10169000B8C0803909F45FC0803809F0C0C05BC0B1
:1016A000803B09F486C038F4803A09F466C0883A71
:1016B00009F47FC0B4C0803C09F4A7C0883C09F499
:1016C000A4C0883B09F48AC0AAC08091190610C042
:1016D00090913B0680913A06981770F5E0913B0691
:1016E00081E08E0F80933B06F0E0E65EF94F80814B
:1016F0008093BB0085EC86C080933C068EC0E09151
:101700003B0681E08E0F80933B068091BB00F0E0AA
:10171000E65EF94F808390913B0680913A066EC059
:10172000E0913B0681E08E0F80933B068091BB00E9
:10173000F0E0E65EF94F80838091EE0481116DC088
:1017400081E08093ED0484EA61C083E08093EF043C
:1017500010921806CFCF80911806803208F051C041
:10176000E091180681E08E0F809318068091BB00EF
:10177000F0E0E850FA4F8083BDCF85EC8093BC0049
:101780001092EF0480911806803230F4E091180630
:10179000F0E0E850FA4F10826091180670E0E09196
:1017A000EB04F091EC0488EF95E00995109218068F
:1017B00036C084E08093EF041092F7051092F6058E
:1017C000E091E904F091EA0409958091F605811110
:1017D00005C081E08093F6051092D605E091F705EB
:1017E00081E08E0F8093F705F0E0EA52FA4F808196
:1017F0008093BB009091F7058091F605981708F447
:1018000079CF85E88093BC000AC085EC8093BC004A
:101810001092EF0404C010923C060E949807FF91BA
:10182000EF91BF91AF919F918F917F916F915F9158
:101830004F913F912F910F900FBE0F901F901895D1
:10184000CF93DF93282F30E0F901E855FE4F8491C4
:10185000F901EC56FE4FD491F901E058FE4FC491C6
:10186000CC2391F081110E945408EC2FF0E0EE0F90
:10187000FF1FEA58FE4FA591B491EC91ED2381E052
:1018800090E021F480E002C080E090E0DF91CF9111
:1018900008951F93CF93DF93282F30E0F901E85587
:1018A000FE4F8491F901EC56FE4FD491F901E058B6
:1018B000FE4FC491CC23C1F0162F81110E94540811
:1018C000EC2FF0E0EE0FFF1FE459FE4FA591B4910D
:1018D0009FB7F894111104C08C91D095D82302C001
:1018E000EC91DE2BDC939FBFDF91CF911F91089588
:1018F000CF93DF9390E0FC01EC56FE4F2491FC0166
:10190000E058FE4F8491882361F190E0880F991F81
:10191000FC01EE59FE4FC591D491FC01E459FE4FF4
:10192000A591B491611109C09FB7F8948881209561
:1019300082238883EC912E230BC0623061F49FB721
:10194000F8948881322F309583238883EC912E2B55
:101950002C939FBF06C08FB7F894E8812E2B288365
:101960008FBFDF91CF9108958F929F92AF92BF92D8
:10197000CF92DF92EF92FF926B017C010E947D0873
:101980004B015C01C114D104E104F104F1F00E94A7
:101990007D08DC01CB0188199909AA09BB09883E99
:1019A0009340A105B10570F321E0C21AD108E10806
:1019B000F10888EE880E83E0981EA11CB11CC114AA
:1019C000D104E104F10419F7DDCFFF90EF90DF902F
:1019D000CF90BF90AF909F908F9008952FB7F894BD
:1019E0006091DF047091E0048091E1049091E20441
:1019F0002FBF0895789484B5826084BD84B58160DA
:101A000084BD85B5826085BD85B5816085BD8091C9
:101A10006E00816080936E00109281008091810041
:101A20008260809381008091810081608093810039
:101A3000809180008160809380008091B1008460FB
:101A40008093B1008091B00081608093B00080915C
:101A50007A00846080937A0080917A00826080931B
:101A60007A0080917A00816080937A0080917A0078
:101A7000806880937A001092C10061E08DE00E943E
:101A8000780C61E084E00E94780CE0911005F09100
:101A9000110582E08083E0910C05F0910D05108224
:101AA000E0910E05F0910F058FEC808310921805E0
:101AB000E0911405F091150586E08083E091120510
:101AC000F0911305808180618083E0911205F0918F
:101AD0001305808188608083E0911205F0911305E1
:101AE000808180688083E0911205F09113058081E8
:101AF0008F7D808320E042E060E18DE995E00E94E7
:101B00002D0761E08DE995E00E94B20269E171E084
:101B100080E00E94160A61E171E081E00E94160AED
:101B200069E071E082E00E94160A61E071E083E002
:101B30000E94160A60E089E00E94780C60E088E06C
:101B40000E94780C60E087E00E94780C812C912C38
:101B500084EAA82E81E4B82E8092860490928704AD
:101B6000A0928804B0928904C12CD12C90E2E92E75
:101B700091E4F92EC0928204D0928304E09284040E
:101B8000F09285040E943A020E9428048092860402
:101B900090928704A0928804B0928904C092820433
:101BA000D0928304E0928404F09285040E943A0269
:101BB000C1E023E0622E712C88248394912C0E9432
:101BC000EE0C5B016C019B01A60160E070E080E01F
:101BD00090E0A0908A04B0908B04C0908C04D090C8
:101BE0008D04E0908E04F0908F0400919004109189
:101BF00091040E946614233F31404105510561055F
:101C0000710581059105F9F0F0F00E94EE0C8B0151
:101C10009C0160938A0410938B0420938C0430936E
:101C20008D0410928E0410928F04109290041092E2
:101C300091048DE00E94200C61E0892B09F060E0A6
:101C40008DE00E94490C89E00E94200C2091A304A1
:101C5000892BD9F4211131C0C093A304C093A204ED
:101C60000E94EE0C8B019C0160939A0410939B04DC
:101C700020939C0430939D0410929E0410929F0424
:101C80001092A0041092A10418C02223B1F0109267
:101C9000A3040E94EE0C8B019C01609392041093AC
:101CA0009304209394043093950410929604109218
:101CB0009704109298041092990420919204309104
:101CC000930440919404509195046091960470910E
:101CD00097048091980490919904A0909A04B090F0
:101CE0009B04C0909C04D0909D04E0909E04F090D2
:101CF0009F040091A0041091A1040E946614233F48
:101D0000D1E03D074105510561057105810591054A
:101D100081F078F08091A204882389F08091A30457
:101D200081110DC01092A2048EEB92E00E94A208D5
:101D300049C0A5E40E946F1409F008F443C08091E3
:101D4000A204882309F43EC08091A30481113AC003
:101D50001092A20480ED92E00E94A2088091D40427
:101D6000882381F18091B804882321F080E00E94CB
:101D7000F10528C083EE92E00E94A2088091B6048B
:101D80009091B7048130910539F47092B704609254
:101D9000B6040FE010E006C001979093B70480935B
:101DA000B604F7CF68E18DE995E00E94180464E17C
:101DB00070E080E090E00E94B40C0150110991F7AE
:101DC0000E94280488E00E94200C2091B504892BF1
:101DD000D9F4211131C0C093B504C093B4040E945A
:101DE000EE0C8B019C016093AC041093AD04209326
:101DF000AE043093AF041092B0041092B10410926C
:101E0000B2041092B30418C02223B1F01092B504AA
:101E10000E94EE0C8B019C016093A4041093A50416
:101E20002093A6043093A7041092A8041092A9044A
:101E30001092AA041092AB042091A4043091A5043E
:101E40004091A6045091A7046091A8047091A90440
:101E50008091AA049091AB04A090AC04B090AD0422
:101E6000C090AE04D090AF04E090B004F090B10404
:101E70000091B2041091B3040E946614233FD1E094
:101E80003D0741055105610571058105910549F140
:101E900040F18091B404882349F18091B504811107
:101EA00025C01092B40486E093E00E94A2088091BD
:101EB000D404882359F01092D40485E193E00E9461
:101EC000A2081092B7041092B60433C0C093D40491
:101ED00082E393E00E94A2089092B7048092B60435
:101EE00028C0A5E40E946F1431F128F18091B40458
:101EF000882309F18091B50481111DC01092B404AA
:101F00008CE493E00E94A2088091D404882399F085
:101F10008091B804882339F08CE593E00E94A208F0
:101F20001092B80406C086E793E00E94A208C0930E
:101F3000B8040E94280487E00E94200C2091CB0462
:101F4000892BD9F4211131C0C093CB04C093CA04AA
:101F50000E94EE0C8B019C016093C2041093C30499
:101F60002093C4043093C5041092C6041092C70491
:101F70001092C8041092C90418C02223B1F0109224
:101F8000CB040E94EE0C8B019C016093BA04109369
:101F9000BB042093BC043093BD041092BE04109285
:101FA000BF041092C0041092C1042091BA04309171
:101FB000BB044091BC045091BD046091BE0470917B
:101FC000BF048091C0049091C104A090C204B0905D
:101FD000C304C090C404D090C504E090C604F0903F
:101FE000C7040091C8041091C9040E946614233FDD
:101FF000D1E03D0741055105610571058105910558
:1020000081F078F08091CA04882389F08091CB0414
:1020100081110DC01092CA048BE893E00E94A208BF
:102020004EC0A5E40E946F1409F008F448C08091E6
:10203000CA04882309F443C08091CB0481113FC0B6
:102040001092CA048091B9048C278093B9048EE958
:1020500093E00E94A2088091D404882381F18091AA
:10206000B804882321F081E00E94F10528C082EBAA
:1020700093E00E94A2088091B6049091B704833047
:10208000910539F49092B7048092B6040FE010E005
:1020900006C001969093B7048093B604F7CF6CE125
:1020A0008DE995E00E94180464E170E080E090E022
:1020B0000E94B40C0150110991F70E942804E0E439
:1020C000E0937C0080917A00806480937A00809114
:1020D0007A0086FDFCCF609178008091790070E0F5
:1020E000782B072E000C880B990B0E94961520E088
:1020F00030E040EA50E40E944B1620E030EC4FE71D
:1021000054E40E94F3142DEC3CEC4CEC5DE30E9493
:10211000F3141B012C016093DA047093DB048093A9
:10212000DC049093DD042091CC043091CD044091E7
:10213000CE045091CF040E9481146B017C0120E0F9
:1021400030E0A9010E944616181624F0F7FAF09420
:10215000F7F8F0942DEC3CEC4CE45EE3C701B601DB
:102160000E944616181674F48091D40481110AC096
:102170002092CC043092CD044092CE045092CF04F1
:102180000E945A03C090DA04D090DB04E090DC0493
:10219000F090DD042091D6043091D7044091D8040A
:1021A0005091D904C701B6010E94461687FD37C079
:1021B0008091D504882399F11092D50460E084E0E1
:1021C0000E94490C8091D404811102C00E942D0309
:1021D00084ED93E00E94A20865EF73E080E095E053
:1021E0000E942B036091DA047091DB048091DC047F
:1021F0009091DD040E94FD086FEF73E080E095E0B0
:102200000E942B036091D6047091D7048091D8046A
:102210009091D9040E94FD0881E194E044C020918E
:10222000D0043091D1044091D2045091D304C7011D
:10223000B6010E94EE141816E4F18091D5048111C4
:1022400038C0C093D50461E084E00E94490C8091BD
:10225000D404811102C00E942D0388E294E00E9400
:10226000A20865EF73E080E095E00E942B03609187
:10227000DA047091DB048091DC049091DD040E940B
:10228000FD0868E474E080E095E00E942B03609113
:10229000D0047091D1048091D2049091D3040E9413
:1022A000FD0889E594E00E94A2088FED91E00E946C
:1022B000A2080E940B0283CCE4EFF4E013821282A6
:1022C00088EE93E0A0E0B0E084839583A683B78393
:1022D0002DE231E031832083E0E0F5E013821282C9
:1022E00084839583A683B7838FE391E09183808372
:1022F00085EC90E09587848784EC90E097878687CB
:1023000080EC90E0918B808B81EC90E0938B828BC2
:1023100082EC90E0958B848B86EC90E0978B868B9B
:10232000118E128E138E148EEDE9F5E01382128257
:1023300081E591E091838083108A8FEF87871686ED
:10234000118A8FE38387148615861286118684E0AE
:10235000828B82E0838B81E0848B80E1858B80E2BD
:10236000868B80E4878B80E8808F40E050E063E0DC
:10237000CF010C941502EF920F931F93CF93DF932D
:10238000E80147FD02C034E001C034E1042E000C36
:10239000550B57FF03C0519541955109E32E022F6C
:1023A000242FAE010E94DB11CE01DF91CF911F914E
:1023B0000F91EF900895A9E0B0E0E1EEF1E10C9407
:1023C00013146A01122FB02E2BE3201720F0FF24E4
:1023D000F394F00E02C02CE3F22E0F2D27E0AE0195
:1023E0004F5F5F4F0E943513BC014981842F897074
:1023F000813031F0E1FC06C0E0FE06C090E205C08D
:102400009DE203C09BE201C090E05E2D507143FF4E
:102410003CC0911102C083E001C084E0811718F430
:10242000212F281B01C020E051110BC0F601822F83
:1024300030E2882319F031938150FBCFC20ED11CBA
:1024400020E0992329F0D6019C93F60131966F0183
:10245000C6010396E2FE0AC03EE4D6013C9341E485
:1024600011964C93119712963C9306C03EE6F601E6
:10247000308341E641833283FC01322F40E2332333
:1024800009F442C041933150FACF42FF44C0911148
:1024900002C083E001C084E0811718F4212F281BBB
:1024A00001C020E051110BC0F601822F30E28823D9
:1024B00019F031938150FBCFC20ED11C20E099233B
:1024C00029F0D6019C93F60131966F01C60103965F
:1024D000E2FE0BC039E4D6013C933EE411963C93F6
:1024E000119736E412963C9307C039E6F601308323
:1024F0003EE6318336E63283FC01322F40E233235D
:1025000019F041933150FBCFFC01E20FF11D108215
:102510008EEF9FEFA6C021E030E0911102C020E0D5
:1025200030E0161617061CF4FB01319602C0E1E0FC
:10253000F0E02E0F3F1FBB2021F0EB2DF0E0319695
:1025400002C0E0E0F0E02E0F3F1FE12FF0E02E1779
:102550003F071CF4121B212F01C020E08E2D887133
:1025600059F4F601822F30E2882319F0319381501B
:10257000FBCFC20ED11C20E0992329F0D6019C93F9
:10258000F60131966F0151110BC0F601822F90E3D5
:10259000882319F091938150FBCFC20ED11C20E00B
:1025A0000F2D060F9A81342F307144FF03C09133F1
:1025B00009F40150101624F4093018F008E001C0A5
:1025C00001E0AB0177FF02C040E050E0FB01E41BFB
:1025D000F50BA1E0B0E0AC0FBD1FEA0FFB1F8EE2D0
:1025E000A82E4B01801A91080B2D10E01195019532
:1025F00011094F3FBFEF5B0721F4D601AC92119652
:102600006D01641775072CF08416950614F481810A
:1026100001C080E3415051093196D60111967D01E8
:102620004017510724F0D6018C936701E2CF64175D
:10263000750739F4963320F4953319F4311101C03C
:1026400081E3F6018083F701822F90E2882319F05D
:1026500091938150FBCFF701E20FF11D108280E0D2
:1026600090E02996ECE00C942F14283008F027E035
:102670003327DA01990F311D87FD916000966105BE
:10268000710539F432602E5F3D9330E32A95E1F70E
:1026900008959F3F30F080387105610509F03C5F77
:1026A0003C5F3D93913008F08068911DDF93CF939C
:1026B0001F930F93FF92EF92192F987F9695E92F12
:1026C00096959695E90FFF27EE53FF4F99273327ED
:1026D000EE24FF24A701E70105900894079428F44D
:1026E000360FE71EF81E491F511D660F771F881F02
:1026F000991F0694A1F70590079428F4E70EF81E99
:10270000491F561FC11D770F881F991F661F06940A
:10271000A1F70590079428F4F80E491F561FC71F0C
:10272000D11D880F991F661F771F0694A1F705908A
:10273000079420F4490F561FC71FD81F990F661F13
:10274000771F881F0694A9F784911095177041F0A0
:10275000D695C79557954795F794E7941A95C1F77D
:10276000E8E6F0E0689415901591359165919591A2
:1027700005907FE27395E118F10A430B560BC90BE4
:10278000D009C0F7E10CF11E431F561FC91FD01D11
:102790007EF4703311F48A95E6CFE894015030F05E
:1027A000080F0AF40027021708F4202F2395022FA0
:1027B0007A3328F079E37D932A95E9F710C07D9369
:1027C0002A9589F6069497956795379517951794E6
:1027D000E118F10A430B560BC90BD00998F0239569
:1027E0007E9173957A3308F070E37C932013B8F7E9
:1027F0007E9170617D9330F0839571E37D9370E3FA
:102800002A95E1F71124EF90FF900F911F91CF913E
:10281000DF91992787FD909508952F923F924F92CF
:102820005F926F927F928F929F92AF92BF92CF9260
:10283000DF92EF92FF920F931F93CF93DF93CDB769
:10284000DEB7CA1BDB0B0FB6F894DEBF0FBECDBFE1
:1028500009942A88398848885F846E847D848C84B2
:102860009B84AA84B984C884DF80EE80FD800C81BB
:102870001B81AA81B981CE0FD11D0FB6F894DEBF9E
:102880000FBECDBFED010895A1E21A2EAA1BBB1BFE
:10289000FD010DC0AA1FBB1FEE1FFF1FA217B3072C
:1028A000E407F50720F0A21BB30BE40BF50B661F42
:1028B000771F881F991F1A9469F760957095809506
:1028C00090959B01AC01BD01CF0108952A193B09E8
:1028D0004C095D096E097F09800B910B0895002456
:1028E000A7FD00942A1730054005500560057005C6
:1028F000800590050895EE0FFF1F0590F491E02DDF
:1029000009945058BB27AA270E9499140C940C16BE
:102910000E94FE1538F00E94051620F039F49F3F02
:1029200019F426F40C94FB150EF4E095E7FB0C94D7
:10293000F515E92F0E941D1658F3BA1762077307A1
:102940008407950720F079F4A6F50C943F160EF451
:10295000E0950B2EBA2FA02D0B01B90190010C01AF
:10296000CA01A0011124FF27591B99F0593F50F4C7
:10297000503E68F11A16F040A22F232F342F44271F
:10298000585FF3CF469537952795A795F040539517
:10299000C9F77EF41F16BA0B620B730B840BBAF0E7
:1029A0009150A1F0FF0FBB1F661F771F881FC2F752
:1029B0000EC0BA0F621F731F841F48F48795779566
:1029C0006795B795F7959E3F08F0B0CF9395880F20
:1029D00008F09927EE0F9795879508950E94D115D5
:1029E00008F481E008950E9407150C940C160E94CB
:1029F000051658F00E94FE1540F029F45F3F29F0BB
:102A00000C94F51551110C9440160C94FB150E9472
:102A10001D1668F39923B1F3552391F3951B550BBC
:102A2000BB27AA2762177307840738F09F5F5F4FA1
:102A3000220F331F441FAA1FA9F335D00E2E3AF0E0
:102A4000E0E832D091505040E695001CCAF72BD0F8
:102A5000FE2F29D0660F771F881FBB1F2617370749
:102A60004807AB07B0E809F0BB0B802DBF01FF277B
:102A700093585F4F3AF09E3F510578F00C94F5154E
:102A80000C9440165F3FE4F3983ED4F38695779517
:102A90006795B795F7959F5FC9F7880F911D969534
:102AA000879597F90895E1E0660F771F881FBB1F90
:102AB000621773078407BA0720F0621B730B840B3D
:102AC000BA0BEE1F88F7E09508950E94251688F04E
:102AD0009F5798F0B92F9927B751B0F0E1F0660FE2
:102AE000771F881F991F1AF0BA95C9F714C0B13023
:102AF00091F00E943F16B1E008950C943F16672FA5
:102B0000782F8827B85F39F0B93FCCF38695779551
:102B10006795B395D9F73EF490958095709561953A
:102B20007F4F8F4F9F4F0895E89409C097FB3EF465
:102B300090958095709561957F4F8F4F9F4F99230A
:102B4000A9F0F92F96E9BB279395F6958795779588
:102B50006795B795F111F8CFFAF4BB0F11F460FF48
:102B60001BC06F5F7F4F8F4F9F4F16C0882311F0A0
:102B700096E911C0772321F09EE8872F762F05C0B4
:102B8000662371F096E8862F70E060E02AF09A954F
:102B9000660F771F881FDAF7880F9695879597F944
:102BA0000895990F0008550FAA0BE0E8FEEF1616DE
:102BB0001706E807F907C0F012161306E407F50731
:102BC00098F0621B730B840B950B39F40A2661F0A5
:102BD000232B242B252B21F408950A2609F4A14048
:102BE000A6958FEF811D811D089597F99F6780E855
:102BF00070E060E008959FEF80EC089500240A944F
:102C00001616170618060906089500240A941216C7
:102C10001306140605060895092E0394000C11F4FA
:102C2000882352F0BB0F40F4BF2B11F460FF04C0A7
:102C30006F5F7F4F8F4F9F4F089557FD9058440F00
:102C4000551F59F05F3F71F04795880F97FB991F0B
:102C500061F09F3F79F087950895121613061406C8
:102C6000551FF2CF4695F1DF08C016161706180655
:102C7000991FF1CF86957105610508940895E89430
:102C8000BB2766277727CB0197F908950E94D115B6
:102C900008F48FEF08950E945E160C940C160E94A3
:102CA000FE1538F00E94051620F0952311F00C94C3
:102CB000F5150C94FB1511240C9440160E941D165A
:102CC00070F3959FC1F3950F50E0551F629FF0017F
:102CD000729FBB27F00DB11D639FAA27F00DB11D98
:102CE000AA1F649F6627B00DA11D661F829F222721
:102CF000B00DA11D621F739FB00DA11D621F839FA8
:102D0000A00D611D221F749F3327A00D611D231F7D
:102D1000849F600D211D822F762F6A2F11249F57CB
:102D200050409AF0F1F088234AF0EE0FFF1FBB1FCE
:102D3000661F771F881F91505040A9F79E3F51058D
:102D400080F00C94F5150C9440165F3FE4F3983E28
:102D5000D4F3869577956795B795F795E7959F5F37
:102D6000C1F7FE2B880F911D9695879597F90895C9
:102D70000E94D115880B990B089581E090E0F8949A
:102D80000C947C19FB01DC0101900D920020E1F70D
:102D90000895AEE0B0E0EFECF6E10C941B140D8961
:102DA0001E8986E08C831A8309838FEF9FE79E83B9
:102DB0008D83AE01475E5F4F6F89788DCE0101969E
:102DC0000E94EB16EF81F885E00FF11F10822E961E
:102DD000E4E00C943714ABE0B0E0E1EFF6E10C94E2
:102DE0000D146C017B018A01FC011782168283811C
:102DF00081FFCCC1CE0101963C01F6019381F70120
:102E000093FD859193FF81917F01882309F4BAC1D5
:102E1000853239F493FD859193FF81917F0185324D
:102E200029F4B60190E00E94E218E7CF912C212C02
:102E3000312CFFE1F315D8F08B3279F038F4803281
:102E400079F08332A1F4232D20611DC08D3261F011
:102E5000803369F4232D216016C0832D8260382EC3
:102E6000E32DE4603E2E2AC0F32DF8601DC037FC30
:102E70002DC020ED280F2A3040F08E32B9F436FCF8
:102E800081C1232D2064322E19C036FE06C08AE08F
:102E9000989E200D1124922E11C0EAE02E9E200D46
:102EA0001124222EF32DF0623F2E08C08C3621F41F
:102EB000832D8068382E02C0883641F4F70193FDD7
:102EC000859193FF81917F018111B3CF982F9F7DD1
:102ED0009554933028F40C5F1F4F9FE399830DC0E6
:102EE000833631F0833771F0833509F059C021C042
:102EF000F801808189830E5F1F4F88248394912C71
:102F0000530113C02801F2E04F0E511CF801A080BC
:102F1000B18036FE03C0692D70E002C06FEF7FEF15
:102F2000C5010E94D7184C018201F32DFF773F2E77
:102F300016C0280122E0420E511CF801A080B18089
:102F400036FE03C0692D70E002C06FEF7FEFC50150
:102F50000E94CC184C01F32DF0683F2E820133FC07
:102F60001BC0822D90E088169906B0F4B60180E26D
:102F700090E00E94E2182A94F4CFF50137FC859185
:102F800037FE81915F01B60190E00E94E2182110A6
:102F90002A9421E0821A91088114910471F7E8C003
:102FA000843611F0893641F5F80137FE07C060819B
:102FB0007181828193810C5F1F4F08C06081718194
:102FC000072E000C880B990B0E5F1F4FF32DFF7619
:102FD0003F2E97FF09C090958095709561957F4F22
:102FE0008F4F9F4FF0683F2E2AE030E0A3010E94F0
:102FF0001E19882E861845C0853731F4232D2F7E63
:10300000B22E2AE030E025C0932D997FB92E8F365D
:10301000C1F018F4883579F0B5C0803719F08837D9
:1030200021F0B0C0E92FE061BE2EB4FE0DC0FB2D33
:10303000F460BF2E09C034FE0AC0292F2660B22ECC
:1030400006C028E030E005C020E130E002C020E109
:1030500032E0F801B7FE07C06081718182819381FF
:103060000C5F1F4F06C06081718180E090E00E5FB1
:103070001F4FA3010E941E19882E8618FB2DFF7773
:103080003F2E36FE0DC0232D2E7FA22E891458F41C
:1030900034FE0BC032FC09C0832D8E7EA82E05C0E5
:1030A000B82CA32C03C0B82C01C0B92CA4FE0FC0AF
:1030B000FE01E80DF11D8081803321F49A2D997E67
:1030C000A92E09C0A2FE06C0B394B39404C08A2DF1
:1030D000867809F0B394A3FC11C0A0FE06C0B21418
:1030E00088F4280C922C9B180EC0B21460F4B60120
:1030F00080E290E00E94E218B394F7CFB21418F483
:103100002B1802C0982C212CA4FE10C0B60180E31D
:1031100090E00E94E218A2FE17C0A1FC03C088E75D
:1031200090E002C088E590E0B6010CC08A2D867858
:1031300059F0A1FE02C08BE201C080E2A7FC8DE243
:10314000B60190E00E94E218891438F4B60180E3D9
:1031500090E00E94E2189A94F7CF8A94F301E80D68
:10316000F11D8081B60190E00E94E2188110F5CF38
:10317000222009F442CEB60180E290E00E94E218DB
:103180002A94F6CFF6018681978102C08FEF9FEFD8
:103190002B96E2E10C942914FC01059061507040DB
:1031A0000110D8F7809590958E0F9F1F0895FC0110
:1031B0006150704001900110D8F7809590958E0F66
:1031C0009F1F08950F931F93CF93DF93FB012381DC
:1031D00021FD03C08FEF9FEF2CC022FF16C0468158
:1031E0005781248135814217530744F4A081B1816E
:1031F0009D012F5F3F4F318320838C932681378140
:103200002F5F3F4F3783268314C08B01EC01FB01F6
:103210000084F185E02D0995892BE1F6D8011696F9
:103220008D919C911797019617969C938E93169764
:10323000CE01DF91CF911F910F910895FA01AA2736
:10324000283051F1203181F1E8946F936E7F6E5FE9
:103250007F4F8F4F9F4FAF4FB1E03ED0B4E03CD097
:10326000670F781F891F9A1FA11D680F791F8A1F7A
:10327000911DA11D6A0F711D811D911DA11D20D0E1
:1032800009F468943F912AE0269F11243019305D9B
:103290003193DEF6CF010895462F4770405D41938C
:1032A000B3E00FD0C9F7F6CF462F4F70405D4A33D9
:1032B00018F0495D31FD4052419302D0A9F7EACFA1
:1032C000B4E0A6959795879577956795BA95C9F7D0
:1032D00000976105710508959B01AC010A2E0694C3
:1032E0005795479537952795BA95C9F7620F731F7C
:0C32F000841F951FA01D0895F894FFCFC7
:1032FC00010002060E1E0E0602000E0A0E00000051
:10330C000000040404041F0E04040E1F040404042F
:10331C00000040145400401050000000002508F834
:10332C00073702CC07F007DC07CD07000000009C34
:10333C000109013301E90164014201560100000059
:10334C000029020901370236022D071502B2029339
:10335C0002417475616C697A616E646F207374617B
:10336C0074757320646F20636F6E74726F6C65205C
:10337C006E6F20646973706C6179210041747561A2
:10338C006C697A616E646F2074656D7065726174BE
:10339C00757261206E6F20646973706C61792100A5
:1033AC0030257300543A00416272696E646F207468
:1033BC00656C61207072696E636970616C2100319B
:1033CC00003000533A002D2D2D2D2D2D2D2D2D2D72
:1033DC002D2D2D2D2D2D2D2D2D2D2D2D2D2D2D2D11
:1033EC002D2D2D2D2D2D2D2D2D2D2D004162726964
:1033FC006E646F2074656C6120646520656469C3BC
:10340C00A7C3A36F2064652065737461646F206427
:10341C006F20636F6E74726F6C652100434F4E5456
:10342C00524F4C4C4552004F4E004F4646003C3CD0
:10343C003C003E3E3E00416272696E646F207465D2
:10344C006C6120646520656469C3A7C3A36F2064A5
:10345C006520706F7263656E746167656D2064655D
:10346C0020656173746572206567672100252048AB
:10347C00595354455245534953002025004162721B
:10348C00696E646F2074656C612064652065646985
:10349C00C3A7C3A36F20646520736574706F696ED6
:1034AC00742100534554504F494E540043004C6F07
:1034BC006E67205072657373202D204C4546540066
:1034CC0053686F7274205072657373202D204C45B5
:1034DC004654004E61766567616E646F2070617250
:1034EC006120612074656C61206461206573717565
:1034FC006572646121004C6F6E6720507265737346
:10350C00202D20500050726F6772616D6D696E676F
:10351C00204D6F6465206465736174697661646FB6
:10352C00210050726F6772616D6D696E67204D6F0F
:10353C006465204174697661646F210053686F7211
:10354C0074205072657373202D20500053616C767B
:10355C00616E646F20617320616C74657261C3A7C6
:10356C00C3B565732100416C746572616E646F2024
:10357C006F732063616D706F7321004C6F6E6720E9
:10358C005072657373202D2052494748540053687C
:10359C006F7274205072657373202D205249474806
:1035AC0054004E61766567616E646F207061726164
:1035BC0020612074656C61206461206469726569A6
:1035CC00746121004C696D697465204869676820D5
:1035DC0045617374657220456767206174696E6715
:1035EC0069646F210043757272656E743A200048ED
:1035FC0069676820656173746572206567673A2036
:10360C00004C6967616E646F206F20636F6E74721B
:10361C006F6C61646F7221004C696D697465204C2C
:10362C006F772045617374657220456767206174FC
:10363C00696E6769646F21004C6F772065617374E4
:10364C006572206567673A20004465736C69676131
:10365C006E646F206F20636F6E74726F6C61646F39
:10366C007221000D0A006E616E00696E66006F7645
:02367C006600E6
:00000001FF
