:100000000C9404010C941A110C94F3100C942C0110
:100010000C942C010C942C010C942C010C942C01AC
:100020000C942C010C942C010C942C010C942C019C
:100030000C942C010C942C010C942C010C942C018C
:100040000C94A9100C942C010C942C010C942C01F0
:100050000C942C010C942C010C942C010C942C016C
:100060000C943B0D0C942C01B405400646066E061C
:10007000230723072307230723072307FA056E0611
:1000800074069906BE06E306FC0623074006AD0883
:100090004E079B07BA08BA08BA08BA08BA08BA08DD
:1000A000BA089B07DD071F08260866086D08BA080E
:1000B000AD0800407A10F35A00A0724E18090010E3
:1000C000A5D4E80000E87648170000E40B540200CD
:1000D00000CA9A3B000000E1F505000080969800F8
:1000E000000040420F000000A08601000000102721
:1000F00000000000E80300000000640000000000B1
:100100000A00000000000100000000002C76D888E2
:10011000DC674F0823DFC1DFAE59E1B1B796E5E3F5
:10012000E453C63AE651997696E8E6C28426EB890E
:100130008C9B62ED407C6FFCEFBC9C9F40F2BAA5AB
:100140006FA5F490055A2AF75C936B6CF9676DC143
:100150001BFCE0E40D47FEF520E6B500D0ED902E47
:100160000300943577050080841E080000204E0AA5
:10017000000000C80C333333330F986E12831141E3
:10018000EF8D2114893BE65516CFFEE6DB18D184AE
:100190004B381BF77C1D901DA4BBE42420328472D5
:1001A0005E228100C9F124ECA1E53D27000000009A
:1001B000240027002A0000000000250028002B0052
:1001C00000000000230026002900040404040404A5
:1001D00004040202020202020303030303030102F6
:1001E00004081020408001020408102001020408C5
:1001F00010200000000800020100000304070000B6
:10020000000000000000511111241FBECFEFD8E004
:10021000DEBFCDBF12E0A0E0B1E0E4E9FFE302C041
:1002200005900D92AC3EB107D9F724E0ACEEB2E0F8
:1002300001C01D92A034B207E1F711E0C4E0D1E0A3
:1002400004C02197FE010E948319C330D107C9F76A
:100250000E9488110C94C81F0C9400000895089502
:10026000089580E090E008950F931F93CF93DF935C
:10027000EC01423018F08C8188608C834F83688752
:10028000222329F0413019F48C8184608C8364E648
:1002900070E080E090E00E94730F6C8164FD31C0DB
:1002A000E881F9810684F785E02D42E063E0CE0124
:1002B00009958BE496E40197F1F7E881F9810684CA
:1002C000F785E02D42E063E0CE01099503E512E0F9
:1002D000C8010197F1F7E881F9810684F785E02DDF
:1002E00042E063E0CE010995C8010197F1F7E8818A
:1002F000F9810684F785E02D42E062E0CE010995A0
:1003000017C06062CE010E9441118BE496E4019710
:10031000F1F76C816062CE010E94411103E512E0A9
:10032000C8010197F1F76C816062CE010E94411112
:10033000C8010197F1F76C816062CE010E94411102
:100340008BEE90E00197F1F784E08D836CE0CE01B5
:100350000E944111CE010E94491182E08E8366E025
:10036000CE010E944111E881F9810484F585E02DD8
:100370006FEFCE01DF91CF911F910F9109945F92A2
:100380006F927F928F929F92AF92BF92CF92DF92A5
:10039000EF92FF920F931F93CF93DF93982E80914C
:1003A0000803811117C00E94AD0FDC01CB018093BF
:1003B000000390930103A0930203B09303031092F0
:1003C000040310920503109206031092070381E0C4
:1003D00080930803CFE0D0E00E94AD0FDC01CB0199
:1003E0004497A109B1095C016D0150900003609030
:1003F00001037090020380900303B0910403A09165
:100400000503F0910603E09107039501A60160E062
:1004100070E080E090E0A52CB62CC72CD82CEB2EF9
:10042000FA2E0F2F1E2F0E94A219B0F20E94AD0FBC
:100430008B019C016093000310930103209302033E
:1004400030930303109204031092050310920603E5
:100450001092070381E0981202C06CE103C0911072
:1004600005C068E183E493E00E944111219709F0FF
:10047000B3CFDF91CF911F910F91FF90EF90DF905D
:10048000CF90BF90AF909F908F907F906F905F9034
:100490000895AF92BF92CF92DF92EF92FF920F93A7
:1004A0001F93CF93DF938091F4029091F502A09176
:1004B000F602B091F7020196A11DB11D8093F402DE
:1004C0009093F502A093F602B093F7020E94AD0F4D
:1004D000DC01CB019C01AD0160E070E080E090E0C8
:1004E000A090EC02B090ED02C090EE02D090EF022E
:1004F000E090F002F090F1020091F2021091F3020C
:100500000E9499190E94C01A2AE037ED43E25CE389
:100510000E94141B87FD1CC00E94AD0FDC01CB01A3
:100520008093EC029093ED02A093EE02B093EF0261
:100530001092F0021092F1021092F2021092F30265
:100540001092F4021092F5021092F6021092F70245
:10055000DF91CF911F910F91FF90EF90DF90CF909F
:10056000BF90AF900895909116048091170460E0B9
:10057000992341F0882371F08CE00E94170C8AE9DE
:1005800091E00DC08823A1F08CE00E94170C85E952
:1005900091E005C08CE00E94170C81E991E00E9477
:1005A000050C61E08DE00E94170C8DE292E00DC019
:1005B0008CE00E94170C8AE991E00E94050C61E032
:1005C0008DE00E94170C89E292E00C94050C80915A
:1005D000080460E08823F1F080E00E94170C87E8AF
:1005E00091E00E94050C60E08FE00E94170C87E804
:1005F00091E00E94050C61E080E00E94170C83E806
:1006000091E00E94050C61E08DE00E94170C8FE7DD
:1006100091E01DC080E00E94170C8FE891E00E94DD
:10062000050C60E08FE00E94170C8DE891E00E94BD
:10063000050C61E080E00E94170C89E891E00E94BF
:10064000050C61E08DE00E94170C89E891E00C94A4
:10065000050C83E493E00E94491160E080E00E9471
:10066000170C81EE91E00E94050C61E080E00E9491
:10067000170C80913E01882319F080ED91E002C0B3
:100680008FEB91E00E94050C0C94E7020F931F93EF
:10069000CF93DF93CDB7DEB72A970FB6F894DEBFBE
:1006A0000FBECDBF83E493E00E94491160E080E07B
:1006B0000E94170C8EEA91E00E94050C60911C04C8
:1006C00070911D0480911E0490911F048E010F5F94
:1006D0001F4F21E041E00E94861561E084E00E9406
:1006E000170C8AEA91E00E94050CC8010E94050CD3
:1006F0000E94E7022A960FB6F894DEBF0FBECDBF68
:10070000DF91CF911F910F9108950F931F93CF9376
:10071000DF93CDB7DEB764970FB6F894DEBF0FBE98
:10072000CDBF83E493E00E94491160911804709159
:10073000190480911A0490911B048E010F5F1F4FC2
:1007400021E041E00E94861560911C0470911D0417
:1007500080911E0490911F04065F1F4F21E041E02D
:100760000E94861560E080E00E94170C8AEA91E002
:100770000E94050CC8010E94050C61E080E00E9407
:10078000170C86EA91E00E94050CCE0101960E94AA
:10079000050C64960FB6F894DEBF0FBECDBFDF9197
:1007A000CF911F910F9108950F931F93CF93DF93D4
:1007B000CDB7DEB76E970FB6F894DEBF0FBECDBFD4
:1007C00083E493E00E94491160E080E00E94170CEE
:1007D00084EA91E00E94050C61E080E00E94170C21
:1007E00082EA91E00E94050C60910A0470910B046A
:1007F00080910C0490910D048E010F5F1F4F21E03A
:1008000041E00E948615609112047091130480915A
:10081000140490911504065F1F4F21E041E00E94EF
:10082000861560911C0470911D0480911E049091A6
:100830001F04065F1F4F21E041E00E94861560E023
:1008400083E00E94170C60E083E493E00E94F80FBD
:10085000CE0101960E94050C61E083E00E94170C16
:1008600061E083E493E00E94F80FCE010B960E94B2
:10087000050C60E08AE00E94170C8FE991E00E946D
:10088000050CC8010E94050C6E960FB6F894DEBFE9
:100890000FBECDBFDF91CF911F910F910895EF92C1
:1008A000FF920F931F93CF93DF93CDB7DEB764977B
:1008B0000FB6F894DEBF0FBECDBF609118047091E3
:1008C000190480911A0490911B049E012F5F3F4FE1
:1008D0007901890121E041E00E94861520E030E0A5
:1008E00040E251E4609118047091190480911A0457
:1008F00090911B040E94D817065F1F4F87FF11C0FD
:10090000FF92EF9286EE92E09F938F931F930F9347
:100910000E94151D0F900F900F900F900F900F9049
:1009200004C0B701C8010E940E1D61E08AE00E9468
:10093000170C8CE791E00E94050CC8010E94050C81
:1009400064960FB6F894DEBF0FBECDBFDF91CF9196
:100950001F910F91FF90EF900895EF92FF920F93E8
:100960001F93CF93DF93109230018091200488234E
:1009700019F009E411E002C00AE511E061E170E05C
:1009800080E090E00E943A1CEC01009741F0188250
:10099000B8010E940E1D80E1E82EF12C02C0E12C6E
:1009A000F12C83E493E00E94491160E080E00E9412
:1009B000170C8BE691E00E94050C61E080E00E943C
:1009C000170CA701BE0183E493E00E94BA0F68EE02
:1009D00073E080E090E00E94730F13E083E493E003
:1009E0000E94491160E080E00E94170C8BE691E0C4
:1009F0000E94050C61E080E00E94170CA701BE0177
:100A000083E493E00E94BA0F68EC70E080E090E02D
:100A10000E94730F83E493E00E94491168EC70E038
:100A200080E090E00E94730F1150C1F6CE01DF917B
:100A3000CF911F910F91FF90EF900C94B11B8EE01E
:100A40000E945C0FBC01990F880B990B0E94DF1765
:100A500020E030E040EA50E40E943E1820E030EC14
:100A60004FE754E40E94181A2AE037ED43E25CE3B2
:100A70000E94181A609318047093190480931A0442
:100A800090931B040895CF92DF92EF92FF92C09053
:100A90000E04D0900F04E0901004F090110420E0B8
:100AA00030E048EC52E4C701B6010E94D81781112A
:100AB00015C060E081E00E94170C63E083E493E0DE
:100AC0000E94F80F61E081E00E94170C8AEE92E02C
:100AD000FF90EF90DF90CF900C94050C20E030E079
:100AE000A901C701B6010E94D817811115C060E0A5
:100AF00081E00E94170C8AEE92E00E94050C61E0F2
:100B000081E00E94170C63E083E493E0FF90EF9094
:100B1000DF90CF900C94F80FFF90EF90DF90CF9084
:100B200008956F927F928F929F92AF92BF92CF92D1
:100B3000DF92EF92FF920F931F93CF93DF93CDB786
:100B4000DEB72A970FB6F894DEBF0FBECDBFE09197
:100B500007044E2F50E04331510508F074C1FA01EB
:100B6000EC5CFF4F0C94831981113DC00E94AD0FC6
:100B7000DC01CB01845F9140A109B1094C015D0109
:100B80006090F8027090F902B091FA02A091FB0215
:100B9000F091FC02E091FD020091FE021091FF0233
:100BA0009401A50160E070E080E090E05301CB2E5D
:100BB000DA2EEF2EFE2E0E94A21908F444C10E94E4
:100BC000AD0F4B015C016093F8029092F902A09284
:100BD000FA02B092FB021092FC021092FD021092F7
:100BE000FE021092FF020E94D4030E9443050E945D
:100BF0004F0429C181112BC00E94AD0FDC01CB0134
:100C0000845F9140A109B1094C015D016090F80237
:100C10007090F902B091FA02A091FB02F091FC02EF
:100C2000E091FD020091FE021091FF029401A501E6
:100C300060E070E080E090E05301CB2EDA2EEF2EE2
:100C4000FE2E0E94A21908F4FEC00E94AD0F0E9461
:100C5000AD0F4B015C016093F8029092F902A092F3
:100C6000FA02B092FB021092FC021092FD02109266
:100C7000FE021092FF020E9485030E94B302E3C0AD
:100C8000882309F4E0C00E942903DDC0882309F409
:100C9000DAC083E493E00E94491160E080E00E94A2
:100CA000170C85EF91E00E94050C61E086E00E9440
:100CB000170C6091030470910404809105049091D5
:100CC00006048E010F5F1F4F20E041E00E94861551
:100CD000C8010E94050C82EF91E04BC0882309F403
:100CE000B2C00E944603AFC0882309F4ACC083E4BD
:100CF00093E00E94491160E080E00E94170C8FE0B1
:100D000092E00E94050C60913F017091400180913A
:100D10004101909142018E010F5F1F4F21E041E0A0
:100D20000E94861561E080E00E94170C86E092E048
:100D300086C0882309F487C083E493E00E944911A8
:100D400060E080E00E94170C89E392E00E94050CAD
:100D500061E081E00E94170C80E292E00E94050CA5
:100D600080911704882319F08DE292E002C089E295
:100D700092E00E94050C0E94E70265C0882309F4F6
:100D800062C083E493E00E94491160E080E00E9429
:100D9000170C89E392E00E94050C60913A01709172
:100DA0003B0180913C0190913D018E010F5F1F4FEF
:100DB00021E041E00E94861561E080E00E94170C6E
:100DC00080E292E03CC08823F1F183E493E00E944A
:100DD000491160E080E00E94170C89E392E00E94D4
:100DE000050C61E081E00E94170C80E392E00E9414
:100DF000050C80911604B6CF882329F183E493E093
:100E00000E94491160E080E00E94170C89E392E0A3
:100E10000E94050C60913601709137018091380174
:100E2000909139018E010F5F1F4F21E041E00E9438
:100E3000861561E080E00E94170C80E392E00E943A
:100E4000050CC80196CF2A960FB6F894DEBF0FBEE8
:100E5000CDBFDF91CF911F910F91FF90EF90DF9069
:100E6000CF90BF90AF909F908F907F906F9008959C
:100E7000CF92DF92EF92FF920F931F93CF93DF9366
:100E8000E09107044E2F50E0FA013197E231F1056D
:100E900008F070C1E95BFF4F0C94831900910304C3
:100EA00010910404D0910504C0910604882319F11F
:100EB00020E030E048EC52E4B8018D2F9C2F0E94D6
:100EC000D817882361F020E030E040E85FE3B80104
:100ED0008D2F9C2F0E94AC198B01D82FC92FC801D0
:100EE000AD2FBC2F8093030490930404A0930504BA
:100EF000B09306043FC120E030E0A901B8018D2F76
:100F00009C2F0E94D817882351F020E030E040E861
:100F10005FE3B8018D2F9C2F0E94AB1903C060E0E6
:100F200070E0CB0160930304709304048093050484
:100F3000909306041FC1C0901C04D0901D04E09043
:100F40001E04F0901F048823C1F020E030E048E444
:100F500052E4C701B6010E94141B87FF09C020E0BC
:100F600030E040E05FE3C701B6010E94AC191CC04D
:100F700060E070E088E492E417C020E030E040E2F6
:100F800051E4C701B6010E94D81718164CF420E0AE
:100F900030E040E05FE3C701B6010E94AB1904C036
:100FA00060E070E080E291E460931C0470931D04A3
:100FB00080931E0490931F04DDC0C0903F01D09029
:100FC0004001E0904101F09042018823C1F020E00F
:100FD00030E040E251E4C701B6010E94141B87FFD4
:100FE00009C020E030E040E05FE3C701B6010E94A5
:100FF000AC191CC060E070E080E291E417C020E012
:1010000030E040E85FE3C701B6010E94D817181628
:101010004CF420E030E040E05FE3C701B6010E94FD
:10102000AB1904C060E070E080E89FE360933F018B
:101030007093400180934101909342019BC0909135
:10104000170481E089278093170494C0C0903A0167
:10105000D0903B01E0903C01F0903D018823C1F02D
:1010600020E030E048EC52E4C701B6010E94141BB6
:1010700087FF09C020E030E040E050E4C701B6013E
:101080000E94AC191AC060E070E088EC92E415C0D0
:1010900020E030E0A901C701B6010E94D817181658
:1010A0004CF420E030E040E050E4C701B6010E947B
:1010B000AB1903C060E070E0CB0160933A0170931C
:1010C0003B0180933C0190933D0154C090911604E4
:1010D00081E08927809316044DC0C0903601D090DE
:1010E0003701E0903801F09039018823C1F020E009
:1010F00030E048EC52E4C701B6010E94141B87FFA0
:1011000009C020E030E040E050E4C701B6010E9491
:10111000AC191AC060E070E088EC92E415C020E0E1
:1011200030E0A901C701B6010E94D81718164CF487
:1011300020E030E040E050E4C701B6010E94AB1966
:1011400003C060E070E0CB0160933601709337011B
:1011500080933801909339010DC060913E0181E088
:10116000682760933E018CE00E94920E1092170453
:101170001092160481E0DF91CF911F910F91FF90A3
:10118000EF90DF90CF900C9491052F923F924F9269
:101190005F926F927F928F929F92AF92BF92CF9207
:1011A000DF92EF92FF920F931F93CF93DF9387E02D
:1011B0000E94690E4C01892BD9F080912103811185
:1011C00017C081E0809321030E94AD0FDC01CB01A9
:1011D0008093190390931A03A0931B03B0931C03ED
:1011E00010921D0310921E0310921F0310922003F1
:1011F00080912103882309F4ABC0892809F0A8C095
:10120000109221030E94AD0F2B013C012AEB3FEF0E
:101210004FEF5FEF6FEF7FEF8FEF9FEFA09019031E
:10122000B0901A03C0901B03D0901C03E0901D03E4
:10123000F0901E0300911F03109120030E94991942
:101240001201230151016201E12CF12C00E010E0B8
:101250000E9490192D3A31404105510561057105F3
:101260008105910511F008F073C080913001882349
:10127000B1F010922004DF91CF911F910F91FF9058
:10128000EF90DF90CF90BF90AF909F908F907F9026
:101290006F905F904F903F902F900C94AD04809191
:1012A0000904882309F454C0809108048823A9F014
:1012B00081E0DF91CF911F910F91FF90EF90DF9030
:1012C000CF90BF90AF909F908F907F906F905F90E6
:1012D0004F903F902F900C943807809135018F5F8D
:1012E0008093350190912004992319F0913061F099
:1012F00017C0843018F081E080933501E09135010A
:10130000F0E0EE51FD4F09C0883010F090933501A8
:10131000E0913501F0E0E652FD4F808180930704B3
:1013200080E00E94BF0181E0DF91CF911F910F917A
:10133000FF90EF90DF90CF90BF90AF909F908F90F5
:101340007F906F905F904F903F902F900C949105FD
:10135000DF91CF911F910F91FF90EF90DF90CF9091
:10136000BF90AF909F908F907F906F905F904F90C5
:101370003F902F9008952F923F924F925F926F92DD
:101380007F928F929F92AF92BF92CF92DF92EF9215
:10139000FF920F931F93CF93DF9388E00E94690E13
:1013A0004C01892BD9F080911803811117C081E07D
:1013B000809318030E94AD0FDC01CB0180931003D2
:1013C00090931103A0931203B0931303109214038C
:1013D00010921503109216031092170380911803B0
:1013E000882309F4ADC0892809F0AAC01092180317
:1013F0000E94AD0F2B013C012AEB3FEF4FEF5FEF57
:101400006FEF7FEF8FEF9FEFA0901003B09011036D
:10141000C0901203D0901303E0901403F0901503D2
:1014200000911603109117030E94991912012301CC
:1014300051016201E12CF12C00E010E00E949019B2
:101440002D3A314041055105610571058105910530
:1014500011F008F075C0809130018823B9F081E067
:1014600080932004DF91CF911F910F91FF90EF9017
:10147000DF90CF90BF90AF909F908F907F906F90B4
:101480005F904F903F902F900C94AD048091090491
:10149000882309F455C0809108048823A9F080E0CE
:1014A000DF91CF911F910F91FF90EF90DF90CF9040
:1014B000BF90AF909F908F907F906F905F904F9074
:1014C0003F902F900C943807809135018150809384
:1014D000350190912004992319F0913061F018C0E2
:1014E000811103C083E080933501E0913501F0E084
:1014F000EE51FD4F0AC0811103C087E08093350192
:10150000E0913501F0E0E652FD4F808180930704C1
:1015100081E00E94BF0181E0DF91CF911F910F9187
:10152000FF90EF90DF90CF90BF90AF909F908F9003
:101530007F906F905F904F903F902F900C9491050B
:10154000DF91CF911F910F91FF90EF90DF90CF909F
:10155000BF90AF909F908F907F906F905F904F90D3
:101560003F902F900895CF93DF93EC01BC01990F2A
:10157000880B990B0E94DF1720E030E048EC52E422
:101580000E94141B181614F4C4E6D0E02FEF30E0CC
:10159000DE010E94891924E630E040E050E00E941C
:1015A000FC18B9018BE0DF91CF910C94FD0ECF9325
:1015B000DF93EC01BC01990F880B990B0E94DF1798
:1015C00020E030E048EC52E40E94141B181614F49A
:1015D000C4E6D0E02FEF30E0DE010E94891924E656
:1015E00030E040E050E00E94FC18B9018AE0DF9151
:1015F000CF910C94FD0E85ED8093BC008091BC00D2
:1016000084FDFCCF10923203089540919C03262F55
:1016100030E0240F311D21323105DCF420913203FA
:101620002430C9F4FC0180E090E0861758F4309132
:101630009C032191DC01A458BC4FA30FB11D2C9336
:101640000196F3CF80919C03680F60939C0380E028
:10165000089581E0089582E0089508950895089519
:10166000E0912B0380912A03E81730F4F0E0E45A6C
:10167000FC4F808190E008958FEF9FEF0895909147
:101680002B0380912A03981750F4E92FF0E0E45AD5
:10169000FC4F208130E09F5F90932B0302C02FEF1F
:1016A0003FEFC901089580912A0390E020912B0318
:1016B000821B91090895CF92DF92EF92FF920F93D0
:1016C0001F93CF93DF937C01CB018A0120913303D9
:1016D000222389F0EB016B01C40ED51ECC15DD056C
:1016E00069F06991D701ED91FC910190F081E02DB5
:1016F000C7010995F3CF642F0E94050BC801DF9144
:10170000CF911F910F91FF90EF90DF90CF900895B0
:10171000CF93DF931F92CDB7DEB769832091330358
:101720002223D1F020913603203240F021E030E036
:10173000FC013383228380E090E015C08091340364
:10174000E82FF0E0ED51FC4F998190838F5F8093FB
:1017500034038093360305C061E0CE0101960E94F8
:10176000050B81E090E00F90DF91CF9108958330D9
:1017700081F028F4813099F08230A1F0089587300B
:10178000A9F08830B9F08430D1F4809180008F7D49
:1017900003C0809180008F7780938000089584B586
:1017A0008F7702C084B58F7D84BD08958091B0008D
:1017B0008F7703C08091B0008F7D8093B000089533
:1017C0003FB7F8948091260390912703A0912803B6
:1017D000B091290326B5A89B05C02F3F19F00196AB
:1017E000A11DB11D3FBFBA2FA92F982F8827820FA7
:1017F000911DA11DB11DBC01CD0142E0660F771FF7
:10180000881F991F4A95D1F70895009769F0FC0148
:1018100001900020E9F73197AF01481B590BBC013B
:1018200083E493E00C94BA0F80E090E008950F9366
:101830001F93CF93DF93CDB7DEB728970FB6F894F9
:10184000DEBF0FBECDBF00914A0210914B02209126
:101850004C0230914D020D831E832F8338870091F7
:101860004E0210914F022091500230915102098393
:101870001A832B833C8390914A03691710F06FEF12
:10188000690F40914B03262F30E0FE01E20FF31F5A
:10189000403121F4943011F4618101C06581680FF9
:1018A000606883E493E028960FB6F894DEBF0FBE1D
:1018B000CDBFDF91CF911F910F910C944111EF9209
:1018C000FF920F931F93CF93DF938B01877098E064
:1018D000899FB0011124606483E493E00E94411168
:1018E00083E790E00197F1F7E801085F1F4F8BE96C
:1018F000E82EF12C699183E493E00E94F80FC70170
:101900000197F1F7C017D107A9F7DF91CF911F9188
:101910000F91FF90EF90089530913603313208F027
:101920004BC0809132038111FCCF9091350322E0AE
:101930002093320321E0209331032FEF2093E20321
:101940001092E1033093E003E3EEF3E0A0ECB3E0A8
:1019500020E0321721F041914D932F5FFACF109282
:10196000BF032091BF03990F922B9093BF039091D7
:101970003003913061F4109230039091BF03909343
:10198000BB009091BC0093FDF8CF95EC01C095EEA3
:101990009093BC00909132039230E1F39091E20376
:1019A0009F3F79F08091E203803241F08091E20321
:1019B000803331F084E005C081E003C082E001C0E3
:1019C00083E010923403109236031092330308958B
:1019D000FC0123812223B1F08181682B6083828105
:1019E00091E0909333038093350310923403109267
:1019F000360387E393E00E94880B0E948C0C282F0B
:101A000030E002C020E030E081E090E0232B11F0D4
:101A100080E090E00895EF92FF920F931F93CF9391
:101A20008C01FC0184E0C0E060FF02C09589C92BF5
:101A30006695815031968111F7CF413011F4F8014C
:101A40004489F8018585C82BC42B7801FEE0EF0E90
:101A5000F11CF80162896C2BC7010E94E80CF801A7
:101A6000628960956C23C701CF911F910F91FF9000
:101A7000EF900C94E80C1F920F920FB60F92112466
:101A80002F933F934F935F936F937F938F939F9386
:101A9000AF93BF93EF93FF938091B900887F803617
:101AA00009F49CC068F5883209F45BC090F4803179
:101AB00009F454C038F4882309F4F6C0883009F4D6
:101AC0004DC0F6C0883109F44CC0803209F45DC0C5
:101AD000EFC0803409F468C048F4803309F455C07D
:101AE000883309F0E5C08093E203D8C0803509F45B
:101AF0004FC0883509F45DC0883409F0D9C0D6C01C
:101B0000883909F4C7C0A8F4883709F467C038F4E5
:101B1000883609F463C0803709F460C0C9C08838CA
:101B200009F4B8C0803909F45FC0803809F0C0C03A
:101B30005BC0803B09F486C038F4803A09F466C083
:101B4000883A09F47FC0B4C0803C09F4A7C0883C3F
:101B500009F4A4C0883B09F48AC0AAC08091BF03DD
:101B600010C09091E1038091E003981770F5E09127
:101B7000E10381E08E0F8093E103F0E0E054FC4F3D
:101B800080818093BB0085EC86C08093E2038EC089
:101B9000E091E10381E08E0F8093E1038091BB002F
:101BA000F0E0E054FC4F80839091E1038091E003EA
:101BB0006EC0E091E10381E08E0F8093E10380919C
:101BC000BB00F0E0E054FC4F808380913103811131
:101BD0006DC081E08093300384EA61C083E080932C
:101BE00032031092BE03CFCF8091BE03803208F043
:101BF00051C0E091BE0381E08E0F8093BE038091BF
:101C0000BB00F0E0E256FC4F8083BDCF85EC8093B3
:101C1000BC00109232038091BE03803230F4E09118
:101C2000BE03F0E0E256FC4F10826091BE0370E00C
:101C3000E0912E03F0912F038EE993E00995109225
:101C4000BE0336C084E08093320310929D0310924D
:101C50009C03E0912C03F0912D03099580919C0346
:101C6000811105C081E080939C0310927C03E09178
:101C70009D0381E08E0F80939D03F0E0E458FC4FBC
:101C800080818093BB0090919D0380919C03981765
:101C900008F479CF85E88093BC000AC085EC809376
:101CA000BC001092320304C01092E2030E94FB0AAF
:101CB000FF91EF91BF91AF919F918F917F916F9124
:101CC0005F914F913F912F910F900FBE0F901F90FA
:101CD0001895CF93DF93282F30E0F901EE50FE4F97
:101CE0008491F901E252FE4FD491F901E653FE4F7F
:101CF000C491CC2391F081110E94B70BEC2FF0E03E
:101D0000EE0FFF1FE054FE4FA591B491EC91ED232F
:101D100081E090E021F480E002C080E090E0DF917B
:101D2000CF9108951F93CF93DF93282F30E0F901CF
:101D3000EE50FE4F8491F901E252FE4FD491F90129
:101D4000E653FE4FC491CC23C1F0162F81110E949F
:101D5000B70BEC2FF0E0EE0FFF1FEA54FE4FA591FA
:101D6000B4919FB7F894111104C08C91D095D823E9
:101D700002C0EC91DE2BDC939FBFDF91CF911F91CE
:101D80000895CF93DF9390E0FC01E252FE4F24913F
:101D9000FC01E653FE4F8491882361F190E0880FA7
:101DA000991FFC01E455FE4FC591D491FC01EA5402
:101DB000FE4FA591B491611109C09FB7F894888135
:101DC000209582238883EC912E230BC0623061F42E
:101DD0009FB7F8948881322F309583238883EC91C4
:101DE0002E2B2C939FBF06C08FB7F894E8812E2B23
:101DF00028838FBFDF91CF9108951F93CF93DF93F7
:101E0000182FEB0161E00E94C10E209711F460E0F1
:101E100004C0CF3FD10539F461E0812FDF91CF912C
:101E20001F910C94920EE12FF0E0EE50FE4FE491E2
:101E3000E330F9F048F4E130B9F0E230A1F584B5CF
:101E4000806284BDC8BD34C0E730E9F0E83019F1E4
:101E5000E43049F580918000806280938000D093C7
:101E60008B00C0938A0024C084B5806884BDC7BD40
:101E70001FC080918000806880938000D09389008B
:101E8000C093880015C08091B00080688093B00036
:101E9000C093B3000DC08091B00080628093B00009
:101EA000C093B40005C0C038D1050CF0B5CFAFCF9A
:101EB000DF91CF911F9108958E3008F08E5087707A
:101EC000806480937C0080917A00806480937A00A3
:101ED00080917A0086FDFCCF809178002091790076
:101EE00090E0922B08958F929F92AF92BF92CF92E3
:101EF000DF92EF92FF926B017C010E94E00B4B019D
:101F00005C01C114D104E104F104F1F00E94E00B82
:101F1000DC01CB0188199909AA09BB09883E9340C5
:101F2000A105B10570F321E0C21AD108E108F1085A
:101F300088EE880E83E0981EA11CB11CC114D10448
:101F4000E104F10419F7DDCFFF90EF90DF90CF901F
:101F5000BF90AF909F908F9008952FB7F8946091A5
:101F600022037091230380912403909125032FBFB6
:101F700008950895CF92DF92EF92FF920F931F93EF
:101F8000CF93DF936C017A018B01C0E0D0E0CE15D6
:101F9000DF0581F0D8016D918D01D601ED91FC91A5
:101FA0000190F081E02DC6010995892B11F0219651
:101FB000EECF7E01C701DF91CF911F910F91FF906E
:101FC000EF90DF90CF90089521E001C0220F6A9535
:101FD000EAF7DC011C962C931C971A965C934E939F
:101FE0001997ED91FC910484F585E02D60E009944A
:101FF000DC01ED91FC910684F785E02D41E0099527
:1020000081E090E008950E94001D0F931F93CF93ED
:10201000DF93062F0F70423019F440E0602F0EC09E
:10202000142FEC0170E084E0759567958A95E1F7CF
:10203000CE010E940B0D412F602FCE01DF91CF9179
:102040001F910F910C940B0DFC0184858823A9F03E
:10205000218532852115310519F4611106C007C0AB
:102060002130310521F4611102C0858701C0158638
:102070006585CF010E960C94E80C0895EF92FF92BF
:102080000F931F93CF93DF93EC01062FF42EE22ED4
:102090008B85888B10922B0310922A0310923403A5
:1020A000109236031092320311E010933103109214
:1020B000300361E082E10E94920E61E083E10E94C0
:1020C000920E8091B9008E7F8093B9008091B90003
:1020D0008D7F8093B90088E48093B80085E4809375
:1020E000BC008DE29BE090932D0380932C038EE245
:1020F0009BE090932F0380932E03888910933303E2
:102100008093350310923403109236030E948C0C96
:1021100091E0811190E0998B811105C087E393E0F4
:102120000E943F0B8E878989882339F01F861C8285
:1021300060E0CE010E960E94E80C2E2D4F2D602FF0
:10214000CE01DF91CF911F910F91FF90EF900C94F2
:1021500034011F920F920FB60F9211242F933F93C9
:102160008F939F93AF93BF9380912203909123030A
:10217000A0912403B091250330913B0423E0230F69
:102180002D3720F40196A11DB11D05C026E8230FAF
:102190000296A11DB11D20933B04809322039093CE
:1021A0002303A0932403B0932503809126039091E9
:1021B0002703A0912803B09129030196A11DB11D09
:1021C0008093260390932703A0932803B0932903B9
:1021D000BF91AF919F918F913F912F910F900FBE23
:1021E0000F901F9018951F920F920FB60F92112407
:1021F0002F933F934F935F936F937F938F939F930F
:10220000AF93BF93EF93FF93E0913301F0913401CB
:102210000995FF91EF91BF91AF919F918F917F9120
:102220006F915F914F913F912F910F900FBE0F9043
:102230001F9018951F920F920FB60F9211242F9393
:102240003F934F935F936F937F938F939F93AF933E
:10225000BF93EF93FF93E0913101F0913201099523
:10226000FF91EF91BF91AF919F918F917F916F916E
:102270005F914F913F912F910F900FBE0F901F9044
:102280001895DC01ED91FC910684F785E02D40E086
:10229000099461E00E9441118BE39FE10197F1F7FE
:1022A0000895E7E3F3E01382128288EE93E0A0E062
:1022B000B0E084839583A683B78386E592E091831B
:1022C0008083E3E4F3E01382128288E692E0918354
:1022D0008083108A8FEF87871686118A8FE3838722
:1022E000148615861286118684E0828B82E0838BA9
:1022F00081E0848B80E1858B80E2868B80E4878B14
:1023000080E8808F40E050E063E0CF010C94E40F60
:10231000CF93DF93CDB7DEB728970FB6F894DEBF23
:102320000FBECDBF789484B5826084BD84B58160D2
:1023300084BD85B5826085BD85B5816085BD809190
:102340006E00816080936E00109281008091810008
:102350008260809381008091810081608093810000
:10236000809180008160809380008091B1008460C2
:102370008093B1008091B00081608093B000809123
:102380007A00846080937A0080917A0082608093E2
:102390007A0080917A00816080937A0080917A003F
:1023A000806880937A001092C10060E089E00E940A
:1023B000C10E60E088E00E94C10E60E087E00E94EC
:1023C000C10E60E086E00E94C10E60E08EE00E94D7
:1023D000C10E60E08FE00E94C10E61E08DE00E94BE
:1023E000C10E61E084E00E94C10E61E08CE00E94B9
:1023F000C10E61E08AE00E94C10E61E08BE00E94A4
:10240000C10E20E042E060E183E493E00E943E10D0
:1024100061E083E493E00E94241068E271E080E0D0
:102420000E945F0C60E271E081E00E945F0C68E155
:1024300071E082E00E945F0C60E171E083E00E9445
:102440005F0C68E071E084E00E945F0C60E071E086
:1024500085E00E945F0C83E493E00E94491160E0F4
:1024600080E00E94170C64E083E493E00E94F80F80
:1024700065E083E493E00E94F80F60E083E00E944F
:10248000170C8BEA92E00E94050C61E080E00E944C
:10249000170C8AE992E00E94050C68EE73E080E078
:1024A00090E00E94730F83E493E00E94491160E082
:1024B00080E00E94170C89E892E00E94050C61E020
:1024C00080E00E94170C88E792E00E94050C68EEFD
:1024D00073E080E090E00E94730F83E493E00E9439
:1024E000491160E080E00E94170C89EC92E00E94A4
:1024F000050C61E080E00E94170C88EB92E00E94DE
:10250000050C64E670E080E090E00E94730F0E948A
:10251000BB090E94C508809130018111F8CF8091DC
:102520002004811103C01092070405C0813019F402
:102530008AE08093070480E00E94910560913E014B
:102540008CE00E94920E80912004811131C080E0C5
:1025500090E0A4EAB1E480931C0490931D04A0933E
:102560001E04B0931F0480E090E0A0E2B1E48093E9
:10257000030490930404A0930504B093060486E634
:1025800096E6A4EBB1E48093120490931304A09315
:102590001404B09315048AE999E9A3E9B1E480939E
:1025A0000A0490930B04A0930C04B0930D043CC058
:1025B0008130D1F580E090E0A4EAB1E480931C047E
:1025C00090931D04A0931E04B0931F041092160450
:1025D000C12CD12C28E4E22E22E4F22EC092360146
:1025E000D0923701E0923801F092390180E090E01A
:1025F0000E94D70A10921704C0923A01D0923B0170
:10260000E0923C01F0923D0180E090E00E94B30A2C
:1026100080E090E0A0E0B1E480933F01909340011E
:10262000A0934101B093420189E492E0909332017A
:102630008093310180916900836080936900E89AFA
:1026400080E0882E80E0982E412C512C98EC692E49
:1026500092E4792E0E94AD0F5B016C019B01A601F3
:1026600060E070E080E090E0A0902104B09022044F
:10267000C0902304D0902404E0902504F090260418
:1026800000912704109128040E949919233F31409A
:10269000410551056105710581059105F9F0F0F0DD
:1026A0000E94AD0F8B019C016093210410932204C2
:1026B00020932304309324041092250410922604BE
:1026C00010922704109228048DE00E94690E61E0A8
:1026D000892B09F060E08DE00E94920E89E00E9453
:1026E000690E8C01892BD9F080913104811117C0BA
:1026F00081E0809331040E94AD0F9B01AC01609397
:10270000290430932A0440932B0450932C041092F4
:102710002D0410922E0410922F04109230048091F8
:102720003104882309F474C0012B09F071C01092A0
:1027300031040E94AD0F69837A838B839C832AEBDB
:102740003FEF4FEF5FEF6FEF7FEF8FEF9FEFA090C7
:102750002904B0902A04C0902B04D0902C04E0905F
:102760002D04F0902E0400912F04109130040E944B
:102770009919C980DA80EB80FC8056016701E12C51
:10278000F12C8701A982BA82CB82DC82ED82FE82A3
:102790000F831887E12CF12C00E010E00E949019C3
:1027A0002D3A3140410551056105710581059105BD
:1027B00009F070F59091090480912004992391F01B
:1027C0001092090410920804811103C010920704AA
:1027D00005C0813019F41AE01093070481E00E94CB
:1027E000910516C091E090930904811106C0E09113
:1027F0003501F0E0EE51FD4F07C0813079F7E091EF
:102800003501F0E0E652FD4F808180930704E6CF6A
:102810000E94BB090E94C50886E00E94690E8C01D7
:10282000892BD9F080913A04811117C0E1E0E0933F
:102830003A040E94AD0F9B01AC01609332043093C7
:1028400033044093340450933504109236041092AC
:102850003704109238041092390480913A04882386
:1028600009F457C0012B09F054C010923A040E9499
:10287000AD0F69837A838B839C832AEB3FEF4FEF05
:102880005FEF6FEF7FEF8FEF9FEFA0903204B0907C
:102890003304C0903404D0903504E0903604F090B6
:1028A000370400913804109139040E949919C980A5
:1028B000DA80EB80FC8056016701E12CF12C870166
:1028C000A982BA82CB82DC82ED82FE820F831887D6
:1028D000E12CF12C00E010E00E9490192D3A3140DB
:1028E00041055105610571058105910509F088F4DF
:1028F00080910904882369F080910804882319F0E5
:102900001092080403C011E01093080481E00E94B3
:10291000910510912004111163C00E941F05C09001
:102920001804D0901904E0901A04F0901B04209130
:102930001204309113044091140450911504C701FE
:10294000B6010E94141B87FD23C020E030E048EC54
:1029500052E460910E0470910F04809110049091E4
:1029600011040E94D817811113C010920E04109206
:102970000F04109210041092110460E084E00E9491
:10298000920E809109048111B7C00E944305B4C022
:1029900020910A0430910B0440910C0450910D04D5
:1029A000C701B6010E94D81718160CF4A5C020E084
:1029B00030E0A90160910E0470910F048091100421
:1029C000909111040E94D817811196C040920E0474
:1029D00050920F04609210047092110461E0CECF07
:1029E000113009F089C00E941F058FE00E945C0F22
:1029F000BC0180E090E00E94DD1720E030E040E282
:102A000051E40E94181A60931C0470931D04809373
:102A10001E0490931F0420913E01222309F43FC01D
:102A2000209118043091190440911A0450911B040C
:102A30000E94AB1920913F0130914001409141012A
:102A4000509142010E943E186B017C0120E030E071
:102A5000A9010E94141B181684F4C701B6010E9434
:102A60008A1ACB010E94B30A1093170480E090E009
:102A70000E94D70A109216043FC080E090E00E94A6
:102A8000B30A10921704C701B60190580E948A1A1F
:102A9000CB010E94D70A81E0809316042DC080915B
:102AA000170481110BC080911604811118C080E0B9
:102AB00090E00E94B30A80E090E01CC060913A016F
:102AC00070913B0180913C0190913D010E948A1AD6
:102AD000CB010E94B30A80911604882369F06091AB
:102AE00036017091370180913801909139010E942F
:102AF0008A1ACB010E94D70A80E00E9491058114B6
:102B0000910409F4A7CD0E940000A4CDEF920F9389
:102B10001F93CF93DF93E80147FD02C034E001C06B
:102B200034E1042E000C550B57FF03C0519541951D
:102B30005109E32E022F242FAE010E94A615CE01CB
:102B4000DF91CF911F910F91EF900895A9E0B0E030
:102B5000ECEAF5E10C9421196A01122FB02E2BE357
:102B6000201720F0FF24F394F00E02C02CE3F22E85
:102B70000F2D27E0AE014F5F5F4F0E940017BC0191
:102B80004981842F8970813031F0E1FC06C0E0FE7C
:102B900006C090E205C09DE203C09BE201C090E048
:102BA0005E2D507143FF3CC0911102C083E001C013
:102BB00084E0811718F4212F281B01C020E0511157
:102BC0000BC0F601822F30E2882319F03193815037
:102BD000FBCFC20ED11C20E0992329F0D6019C9393
:102BE000F60131966F01C6010396E2FE0AC03EE48B
:102BF000D6013C9341E411964C93119712963C9365
:102C000006C03EE6F601308341E641833283FC0193
:102C1000322F40E2332309F442C041933150FACFBE
:102C200042FF44C0911102C083E001C084E08117DB
:102C300018F4212F281B01C020E051110BC0F60110
:102C4000822F30E2882319F031938150FBCFC20EDE
:102C5000D11C20E0992329F0D6019C93F6013196EE
:102C60006F01C6010396E2FE0BC039E4D6013C9326
:102C70003EE411963C93119736E412963C9307C0BC
:102C800039E6F60130833EE6318336E63283FC01D5
:102C9000322F40E2332319F041933150FBCFFC0136
:102CA000E20FF11D10828EEF9FEFA6C021E030E011
:102CB000911102C020E030E0161617061CF4FB014B
:102CC000319602C0E1E0F0E02E0F3F1FBB2021F063
:102CD000EB2DF0E0319602C0E0E0F0E02E0F3F1F58
:102CE000E12FF0E02E173F071CF4121B212F01C02B
:102CF00020E08E2D887159F4F601822F30E288236E
:102D000019F031938150FBCFC20ED11C20E09923E2
:102D100029F0D6019C93F60131966F0151110BC039
:102D2000F601822F90E3882319F091938150FBCF15
:102D3000C20ED11C20E00F2D060F9A81342F307166
:102D400044FF03C0913309F40150101624F40930F4
:102D500018F008E001C001E0AB0177FF02C040E0DD
:102D600050E0FB01E41BF50BA1E0B0E0AC0FBD1F90
:102D7000EA0FFB1F8EE2A82E4B01801A91080B2D43
:102D800010E01195019511094F3FBFEF5B0721F44A
:102D9000D601AC9211966D01641775072CF084165C
:102DA000950614F4818101C080E3415051093196A8
:102DB000D60111967D014017510724F0D6018C935E
:102DC0006701E2CF6417750739F4963320F4953321
:102DD00019F4311101C081E3F6018083F701822FDC
:102DE00090E2882319F091938150FBCFF701E20F15
:102DF000F11D108280E090E02996ECE00C943D19E2
:102E0000283008F027E03327DA01990F311D87FDBC
:102E1000916000966105710539F432602E5F3D9333
:102E200030E32A95E1F708959F3F30F0803871052F
:102E3000610509F03C5F3C5F3D93913008F080688C
:102E4000911DDF93CF931F930F93FF92EF92192F52
:102E5000987F9695E92F96959695E90FFF27E45F61
:102E6000FE4F99273327EE24FF24A701E7010590A1
:102E70000894079428F4360FE71EF81E491F511DC9
:102E8000660F771F881F991F0694A1F70590079476
:102E900028F4E70EF81E491F561FC11D770F881F23
:102EA000991F661F0694A1F70590079428F4F80E61
:102EB000491F561FC71FD11D880F991F661F771FF7
:102EC0000694A1F70590079420F4490F561FC71FD9
:102ED000D81F990F661F771F881F0694A9F7849142
:102EE0001095177041F0D695C79557954795F7946B
:102EF000E7941A95C1F7E2EBF0E06894159015910C
:102F000035916591959105907FE27395E118F10AED
:102F1000430B560BC90BD009C0F7E10CF11E431F40
:102F2000561FC91FD01D7EF4703311F48A95E6CF69
:102F3000E894015030F0080F0AF40027021708F453
:102F4000202F2395022F7A3328F079E37D932A9559
:102F5000E9F710C07D932A9589F6069497956795B1
:102F6000379517951794E118F10A430B560BC90BC7
:102F7000D00998F023957E9173957A3308F070E329
:102F80007C932013B8F77E9170617D9330F0839528
:102F900071E37D9370E32A95E1F71124EF90FF90A0
:102FA0000F911F91CF91DF91992787FD90950895FB
:102FB0000E941A1808F481E00895E89409C097FB6C
:102FC0003EF490958095709561957F4F8F4F9F4F00
:102FD0009923A9F0F92F96E9BB279395F695879544
:102FE00077956795B795F111F8CFFAF4BB0F11F407
:102FF00060FF1BC06F5F7F4F8F4F9F4F16C08823AE
:1030000011F096E911C0772321F09EE8872F762FE3
:1030100005C0662371F096E8862F70E060E02AF024
:103020009A95660F771F881FDAF7880F9695879510
:1030300097F90895990F0008550FAA0BE0E8FEEFE5
:1030400016161706E807F907C0F012161306E4076C
:10305000F50798F0621B730B840B950B39F40A2665
:1030600061F0232B242B252B21F408950A2609F443
:10307000A140A6958FEF811D811D08950E945118D2
:103080000C94C2180E94B41838F00E94BB1820F0AB
:10309000952311F00C94AB180C94B11811240C94D6
:1030A000F6180E94D31870F3959FC1F3950F50E066
:1030B000551F629FF001729FBB27F00DB11D639FEA
:1030C000AA27F00DB11DAA1F649F6627B00DA11D90
:1030D000661F829F2227B00DA11D621F739FB00D36
:1030E000A11D621F839FA00D611D221F749F3327A6
:1030F000A00D611D231F849F600D211D822F762F3F
:103100006A2F11249F5750409AF0F1F088234AF01B
:10311000EE0FFF1FBB1F661F771F881F9150504087
:10312000A9F79E3F510580F00C94AB180C94F6184B
:103130005F3FE4F3983ED4F3869577956795B7950E
:10314000F795E7959F5FC1F7FE2B880F911D969528
:10315000879597F9089597F99F6780E870E060E098
:1031600008959FEF80EC089500240A941616170620
:1031700018060906089500240A9412161306140668
:1031800005060895092E0394000C11F4882352F0CB
:10319000BB0F40F4BF2B11F460FF04C06F5F7F4F83
:1031A0008F4F9F4F089557FD9058440F551F59F06A
:1031B0005F3F71F04795880F97FB991F61F09F3F24
:1031C00079F087950895121613061406551FF2CF4D
:1031D0004695F1DF08C0161617061806991FF1CF9D
:1031E00086957105610508940895E894BB276627C4
:1031F0007727CB0197F90895052E97FB1EF40094CD
:103200000E94131957FD07D00E94521907FC03D0E2
:103210004EF40C94131950954095309521953F4FDD
:103220004F4F5F4F089590958095709561957F4FB2
:103230008F4F9F4F08952F923F924F925F926F92C0
:103240007F928F929F92AF92BF92CF92DF92EF9236
:10325000FF920F931F93CF93DF93CDB7DEB7CA1BB7
:10326000DB0B0FB6F894DEBF0FBECDBF09942A88E2
:10327000398848885F846E847D848C849B84AA848A
:10328000B984C884DF80EE80FD800C811B81AA8117
:10329000B981CE0FD11D0FB6F894DEBF0FBECDBFE2
:1032A000ED010895A1E21A2EAA1BBB1BFD010DC062
:1032B000AA1FBB1FEE1FFF1FA217B307E407F507E6
:1032C00020F0A21BB30BE40BF50B661F771F881FC2
:1032D000991F1A9469F760957095809590959B0158
:1032E000AC01BD01CF010895A29FB001B39FC00101
:1032F000A39F700D811D1124911DB29F700D811D22
:103300001124911D0895EE0FFF1F0590F491E02DFB
:1033100009940E947419B7FF0895821B930B0895B6
:103320002A0D3B1D4C1D5D1D6E1D7F1D801F911FB5
:1033300008952A193B094C095D096E097F09800B24
:10334000910B08952A153B054C055D056E057F051B
:103350008007910708955058BB27AA270E94C319D8
:103360000C94C2180E94B41838F00E94BB1820F0C8
:1033700039F49F3F19F426F40C94B1180EF4E0953B
:10338000E7FB0C94AB18E92F0E94D31858F3BA1737
:10339000620773078407950720F079F4A6F50C946B
:1033A000F5180EF4E0950B2EBA2FA02D0B01B901E4
:1033B00090010C01CA01A0011124FF27591B99F0AB
:1033C000593F50F4503E68F11A16F040A22F232FB7
:1033D000342F4427585FF3CF469537952795A79507
:1033E000F0405395C9F77EF41F16BA0B620B730BAE
:1033F000840BBAF09150A1F0FF0FBB1F661F771F1F
:10340000881FC2F70EC0BA0F621F731F841F48F4D3
:10341000879577956795B795F7959E3F08F0B0CF5C
:103420009395880F08F09927EE0F97958795089543
:103430000E942C1A0C94C2180E94BB1858F00E94CB
:10344000B41840F029F45F3F29F00C94AB185111E7
:103450000C94F6180C94B1180E94D31868F39923B1
:10346000B1F3552391F3951B550BBB27AA27621780
:103470007307840738F09F5F5F4F220F331F441F8D
:10348000AA1FA9F335D00E2E3AF0E0E832D09150C1
:103490005040E695001CCAF72BD0FE2F29D0660FAE
:1034A000771F881FBB1F261737074807AB07B0E8F1
:1034B00009F0BB0B802DBF01FF2793585F4F3AF0F7
:1034C0009E3F510578F00C94AB180C94F6185F3FB2
:1034D000E4F3983ED4F3869577956795B795F7957D
:1034E0009F5FC9F7880F911D9695879597F9089565
:1034F000E1E0660F771F881FBB1F62177307840701
:10350000BA0720F0621B730B840BBA0BEE1F88F70F
:10351000E09508950E94911A6894B1110C94F618E0
:1035200008950E94DB1888F09F5798F0B92F9927CB
:10353000B751B0F0E1F0660F771F881F991F1AF09E
:10354000BA95C9F714C0B13091F00E94F518B1E0F6
:1035500008950C94F518672F782F8827B85F39F0F5
:10356000B93FCCF3869577956795B395D9F73EF437
:1035700090958095709561957F4F8F4F9F4F0895DF
:1035800097FB16F40E94041B0C94C71AE894F92FB9
:1035900096EBFF2381F0121613061406440B939545
:1035A000F69587957795679557954040FF23B9F72E
:1035B0001BC099270895882351F49850D2F7872B80
:1035C000762F652F542F432F322F20E0B1F31216A0
:1035D00013061406440B88233AF09A95440F551F9E
:1035E000661F771F881FCAF755234AF4440F551FDB
:1035F00011F460FF04C06F5F7F4F8F4F9F4F880FA4
:103600009695879597F90895909580957095609512
:1036100050954095309521953F4F4F4F5F4F6F4FDD
:103620007F4F8F4F9F4F08950E941A1808F48FEF15
:1036300008950F931F93CF93DF938230910510F479
:1036400082E090E0E0913E04F0913F0420E030E021
:10365000A0E0B0E0309719F14081518102811381DF
:1036600048175907C8F08417950769F4109731F087
:1036700012960C93129713961C9327C000933E0446
:1036800010933F0422C02115310519F0421753074A
:1036900018F49A01BD01EF01DF01F801DBCF21151C
:1036A0003105F9F0281B390B2430310580F48A816B
:1036B0009B816115710521F0FB019383828304C016
:1036C00090933F0480933E04FE01329644C0FE0175
:1036D000E20FF31F8193919322503109398328839C
:1036E0003AC020913C0430913D04232B41F42091B9
:1036F00045013091460130933D0420933C042091D4
:103700004301309144012115310541F42DB73EB7F5
:103710004091470150914801241B350BE0913C0436
:10372000F0913D04E217F307A0F42E1B3F0B28177E
:10373000390778F0AC014E5F5F4F2417350748F02A
:103740004E0F5F1F50933D0440933C04819391932F
:1037500002C0E0E0F0E0CF01DF91CF911F910F9127
:103760000895CF93DF93009709F481C0FC0132974D
:1037700013821282A0913E04B0913F04109781F40D
:1037800020813181820F931F20913C0430913D04B0
:103790002817390751F5F0933D04E0933C0467C0C6
:1037A000ED0120E030E0CE17DF0740F44A815B8175
:1037B0009E0141155105F1F0EA01F5CFD383C28393
:1037C00040815181840F951FC817D90759F488810A
:1037D0009981840F951F0296918380838A819B81B2
:1037E000938382832115310529F4F0933F04E093FC
:1037F0003E043DC0E901FB83EA8349915991C40F1E
:10380000D51FEC17FD0761F480819181840F951F0E
:103810000296E90199838883828193819B838A83BD
:10382000E0E0F0E012968D919C911397009719F0CB
:10383000FD01DC01F7CF8D919C9111979D012E5FC9
:103840003F4F820F931F20913C0430913D04281775
:10385000390769F4309729F410923F0410923E041E
:1038600002C013821282B0933D04A0933C04DF9106
:10387000CF910895A0E0B0E0E0E4FCE10C941F19C2
:10388000EC01009721F4CB010E94191BB4C0FC018C
:10389000E60FF71F9C0122503109E217F30708F4E5
:1038A000A8C0D9010D911C91119706171707B0F008
:1038B0000530110508F49BC0C801049786179707C7
:1038C00008F495C002501109061B170B01931193C0
:1038D0006D937C93CF010E94B11B89C05B01A01A3C
:1038E000B10A4C01800E911EA0913E04B0913F049C
:1038F000612C712CE12CF12C109709F446C08D91AC
:103900009C911197A815B905B1F56C0142E0C40E60
:10391000D11CCA14DB0478F14C018A189B0864019D
:1039200042E0C40ED11C1296BC9012971396AC9133
:10393000B5E0CB16D10440F0B282A383918280829D
:10394000D9016D937C9309C00E5F1F4F800F911FAB
:10395000F90191838083EB2DFA2FE114F10431F00A
:10396000D7011396FC93EE93129741C0F0933F0456
:10397000E0933E043CC06816790608F43C017D01E2
:1039800012960D90BC91A02DB7CF80913C049091E0
:103990003D0488169906E1F466167706C8F480910E
:1039A000430190914401009741F48DB79EB7409137
:1039B000470150914801841B950BE817F907C8F49B
:1039C000F0933D04E0933C04F901718360830FC0E0
:1039D000CB010E94191B7C01009759F0A801BE0180
:1039E0000E94051DCE010E94B11BC70104C0CE017B
:1039F00002C080E090E0CDB7DEB7EEE00C943B195A
:103A000081E090E0F8940C94C81FFB01DC0102C037
:103A100001900D9241505040D8F70895FB01DC0110
:103A200001900D920020E1F70895AEE0B0E0EBE1E7
:103A3000FDE10C9429190D891E8986E08C831A8377
:103A400009838FEF9FE79E838D83AE01475E5F4FB3
:103A50006F89788DCE0101960E94371DEF81F88520
:103A6000E00FF11F10822E96E4E00C944519ABE0B4
:103A7000B0E0EDE3FDE10C941B196C017B018A01C0
:103A8000FC0117821682838181FFCCC1CE01019691
:103A90003C01F6019381F70193FD859193FF81919C
:103AA0007F01882309F4BAC1853239F493FD8591E9
:103AB00093FF81917F01853229F4B60190E00E9445
:103AC0002E1FE7CF912C212C312CFFE1F315D8F0DC
:103AD0008B3279F038F4803279F08332A1F4232DDF
:103AE00020611DC08D3261F0803369F4232D216087
:103AF00016C0832D8260382EE32DE4603E2E2AC04E
:103B0000F32DF8601DC037FC2DC020ED280F2A30A2
:103B100040F08E32B9F436FC81C1232D2064322E60
:103B200019C036FE06C08AE0989E200D1124922E00
:103B300011C0EAE02E9E200D1124222EF32DF062FA
:103B40003F2E08C08C3621F4832D8068382E02C0A9
:103B5000883641F4F70193FD859193FF81917F01B0
:103B60008111B3CF982F9F7D9554933028F40C5F2B
:103B70001F4F9FE399830DC0833631F0833771F077
:103B8000833509F059C021C0F801808189830E5F17
:103B90001F4F88248394912C530113C02801F2E015
:103BA0004F0E511CF801A080B18036FE03C0692D74
:103BB00070E002C06FEF7FEFC5010E94231F4C0130
:103BC0008201F32DFF773F2E16C0280122E0420E1E
:103BD000511CF801A080B18036FE03C0692D70E051
:103BE00002C06FEF7FEFC5010E94181F4C01F32D3B
:103BF000F0683F2E820133FC1BC0822D90E08816B6
:103C00009906B0F4B60180E290E00E942E1F2A943B
:103C1000F4CFF50137FC859137FE81915F01B60144
:103C200090E00E942E1F21102A9421E0821A910810
:103C30008114910471F7E8C0843611F0893641F59A
:103C4000F80137FE07C060817181828193810C5F2A
:103C50001F4F08C060817181072E000C880B990BE3
:103C60000E5F1F4FF32DFF763F2E97FF09C09095F3
:103C70008095709561957F4F8F4F9F4FF0683F2ED5
:103C80002AE030E0A3010E946A1F882E861845C0F2
:103C9000853731F4232D2F7EB22E2AE030E025C067
:103CA000932D997FB92E8F36C1F018F4883579F0AD
:103CB000B5C0803719F0883721F0B0C0E92FE06136
:103CC000BE2EB4FE0DC0FB2DF460BF2E09C034FE25
:103CD0000AC0292F2660B22E06C028E030E005C0B9
:103CE00020E130E002C020E132E0F801B7FE07C079
:103CF00060817181828193810C5F1F4F06C060815A
:103D0000718180E090E00E5F1F4FA3010E946A1F47
:103D1000882E8618FB2DFF773F2E36FE0DC0232DF3
:103D20002E7FA22E891458F434FE0BC032FC09C039
:103D3000832D8E7EA82E05C0B82CA32C03C0B82CD2
:103D400001C0B92CA4FE0FC0FE01E80DF11D808159
:103D5000803321F49A2D997EA92E09C0A2FE06C0B7
:103D6000B394B39404C08A2D867809F0B394A3FC6D
:103D700011C0A0FE06C0B21488F4280C922C9B1827
:103D80000EC0B21460F4B60180E290E00E942E1FD3
:103D9000B394F7CFB21418F42B1802C0982C212C2E
:103DA000A4FE10C0B60180E390E00E942E1FA2FE88
:103DB00017C0A1FC03C088E790E002C088E590E04E
:103DC000B6010CC08A2D867859F0A1FE02C08BE2A4
:103DD00001C080E2A7FC8DE2B60190E00E942E1F98
:103DE000891438F4B60180E390E00E942E1F9A9463
:103DF000F7CF8A94F301E80DF11D8081B60190E0C0
:103E00000E942E1F8110F5CF222009F442CEB60168
:103E100080E290E00E942E1F2A94F6CFF601868160
:103E2000978102C08FEF9FEF2B96E2E10C94371938
:103E3000FC010590615070400110D8F78095909575
:103E40008E0F9F1F0895FC0161507040019001107A
:103E5000D8F7809590958E0F9F1F08950F931F930D
:103E6000CF93DF93FB01238121FD03C08FEF9FEFF1
:103E70002CC022FF16C0468157812481358142170C
:103E8000530744F4A081B1819D012F5F3F4F3183DF
:103E900020838C93268137812F5F3F4F3783268382
:103EA00014C08B01EC01FB010084F185E02D099524
:103EB000892BE1F6D80116968D919C911797019662
:103EC00017969C938E931697CE01DF91CF911F91F9
:103ED0000F910895FA01AA27283051F1203181F17C
:103EE000E8946F936E7F6E5F7F4F8F4F9F4FAF4F02
:103EF000B1E03ED0B4E03CD0670F781F891F9A1F15
:103F0000A11D680F791F8A1F911DA11D6A0F711DC8
:103F1000811D911DA11D20D009F468943F912AE0D4
:103F2000269F11243019305D3193DEF6CF010895BC
:103F3000462F4770405D4193B3E00FD0C9F7F6CFED
:103F4000462F4F70405D4A3318F0495D31FD4052B5
:103F5000419302D0A9F7EACFB4E0A695979587954B
:103F600077956795BA95C9F700976105710508952A
:103F70009B01AC010A2E06945795479537952795D6
:103F8000BA95C9F7620F731F841F951FA01D08956E
:043F9000F894FFCFD3
:103F94000010181C000000000001030700070301C3
:103FA4000002060E1E0E0602000E0A0E000000009D
:103FB40000040404041F0E04040E1F04040404007B
:103FC40001B90FB90F010000484200004842010046
:103FD40000803F000040042000202050524F504FEA
:103FE4005243494F4E414C20200020202048495341
:103FF4005445524553452020202000202053656C11
:104004006563696F6E61646F3A202000543A003E24
:104014003E3E003C3C3C002000202020003E003C72
:104024000046414E004845415400424F5448005315
:104034003A003000310050563A0053503A00204EB6
:1040440065772053657420506F696E7420200020BA
:1040540020202044697361626C6564202020200064
:1040640020202020456E61626C6564202020202081
:1040740000202044726976657220537461747573EC
:10408400200020250020202520485953544552451E
:10409400534953202000202020204B703A20002038
:1040A4004E65772050726F702E204761696E200034
:1040B400202020486561743A004F4646004F4E0068
:1040C4002020202046616E3A0020204D616E7561EB
:1040D4006C204D6F64652020200000401454004083
:1040E400105000000000880B5B0B31012F0B530BA9
:1040F4003F0B300B00000000F80FBA0F3101300104
:104104003E10E40F24100510202054656D70657274
:1041140061747572612020200020436F6E74726F89
:104124006C61646F722064652000206465205061B6
:1041340073736F2046756E646F2000556E697665E3
:104144007273696461646500202020486973746532
:1041540072657365203E3E3E003C3C3C2050726FCD
:10416400706F7263696F6E616C000A120B0C0E0D36
:0C417400100F0001030230257300200032
:00000001FF
