:100000000C9404010C942C010C942C010C942C01E4
:100010000C942C010C942C010C942C010C942C01AC
:100020000C942C010C942C010C942C010C942C019C
:100030000C942C010C942C010C942C010C942C018C
:100040000C9436100C942C010C942C010C942C0163
:100050000C942C010C942C010C942C010C942C016C
:100060000C94E00C0C942C015905E505EB051306E6
:10007000C806C806C806C806C806C8069F051306EF
:1000800019063E0663068806A106C806E50552085D
:10009000F30640075F085F085F085F085F085F08B6
:1000A0005F0840078207C407CB070B0812085F08E8
:1000B000520800407A10F35A00A0724E180900103E
:1000C000A5D4E80000E87648170000E40B540200CD
:1000D00000CA9A3B000000E1F505000080969800F8
:1000E000000040420F000000A08601000000102721
:1000F00000000000E80300000000640000000000B1
:100100000A00000000000100000000002C76D888E2
:10011000DC674F0823DFC1DFAE59E1B1B796E5E3F5
:10012000E453C63AE651997696E8E6C28426EB890E
:100130008C9B62ED407C6FFCEFBC9C9F40F2BAA5AB
:100140006FA5F490055A2AF75C936B6CF9676DC143
:100150001BFCE0E40D47FEF520E6B500D0ED902E47
:100160000300943577050080841E080000204E0AA5
:10017000000000C80C333333330F986E12831141E3
:10018000EF8D2114893BE65516CFFEE6DB18D184AE
:100190004B381BF77C1D901DA4BBE42420328472D5
:1001A0005E228100C9F124ECA1E53D27000000009A
:1001B000240027002A0000000000250028002B0052
:1001C00000000000230026002900040404040404A5
:1001D00004040202020202020303030303030102F6
:1001E00004081020408001020408102001020408C5
:1001F00010200000000800020100000304070000B6
:10020000000000000000901011241FBECFEFD8E0C6
:10021000DEBFCDBF12E0A0E0B1E0EEE3FDE302C03F
:1002200005900D92A83EB107D9F724E0A8EEB2E000
:1002300001C01D92A033B207E1F711E0C4E0D1E0A4
:1002400004C02197FE010E94AC18C330D107C9F742
:100250000E94C7100C949D1E0C94000008950895F0
:10026000089580E090E008950F931F93CF93DF935C
:10027000EC01423018F08C8188608C834F83688752
:10028000222329F0413019F48C8184608C8364E648
:1002900070E080E090E00E94010F6C8164FD31C04D
:1002A000E881F9810684F785E02D42E063E0CE0124
:1002B00009958BE496E40197F1F7E881F9810684CA
:1002C000F785E02D42E063E0CE01099503E512E0F9
:1002D000C8010197F1F7E881F9810684F785E02DDF
:1002E00042E063E0CE010995C8010197F1F7E8818A
:1002F000F9810684F785E02D42E062E0CE010995A0
:1003000017C06062CE010E9480108BE496E40197D2
:10031000F1F76C816062CE010E94801003E512E06B
:10032000C8010197F1F76C816062CE010E948010D4
:10033000C8010197F1F76C816062CE010E948010C4
:100340008BEE90E00197F1F784E08D836CE0CE01B5
:100350000E948010CE010E94881082E08E8366E0A9
:10036000CE010E948010E881F9810484F585E02D9A
:100370006FEFCE01DF91CF911F910F9109945F92A2
:100380006F927F928F929F92AF92BF92CF92DF92A5
:10039000EF92FF920F931F93CF93DF93982E80914C
:1003A000F802811117C00E943B0FDC01CB01809342
:1003B000F0029093F102A093F202B093F302109234
:1003C000F4021092F5021092F6021092F70281E008
:1003D0008093F802CFE0D0E00E943B0FDC01CB011C
:1003E0004497A109B1095C016D015090F002609041
:1003F000F1027090F2028090F302B091F402A091A9
:10040000F502F091F602E091F7029501A60160E095
:1004100070E080E090E0A52CB62CC72CD82CEB2EF9
:10042000FA2E0F2F1E2F0E94CB18B0F20E943B0F06
:100430008B019C016093F0021093F1022093F20271
:100440003093F3021092F4021092F5021092F60229
:100450001092F70281E0981202C06CE103C0911083
:1004600005C068E183E393E00E948010219709F0C2
:10047000B3CFDF91CF911F910F91FF90EF90DF905D
:10048000CF90BF90AF909F908F907F906F905F9034
:100490000895909106048091070460E0992341F04B
:1004A000882371F08CE00E94BC0B86E991E00DC0BE
:1004B0008823A1F08CE00E94BC0B81E991E005C08B
:1004C0008CE00E94BC0B8DE891E00E94AA0B61E0D9
:1004D0008DE00E94BC0B89E292E00DC08CE00E948E
:1004E000BC0B86E991E00E94AA0B61E08DE00E94BE
:1004F000BC0B85E292E00C94AA0B8091F80360E0BB
:100500008823F1F080E00E94BC0B83E891E00E9418
:10051000AA0B60E08FE00E94BC0B83E891E00E9490
:10052000AA0B61E080E00E94BC0B8FE791E00E9483
:10053000AA0B61E08DE00E94BC0B8BE791E01DC02F
:1005400080E00E94BC0B8BE891E00E94AA0B60E067
:100550008FE00E94BC0B89E891E00E94AA0B61E049
:1005600080E00E94BC0B85E891E00E94AA0B61E04C
:100570008DE00E94BC0B85E891E00C94AA0B83E30C
:1005800093E00E94881060E080E00E94BC0B8DED3B
:1005900091E00E94AA0B61E080E00E94BC0B809178
:1005A0003A01882319F08CEC91E002C08BEB91E0CA
:1005B0000E94AA0B0C947D020F931F93CF93DF939D
:1005C000CDB7DEB72A970FB6F894DEBF0FBECDBF0A
:1005D00083E393E00E94881060E080E00E94BC0BFF
:1005E0008AEA91E00E94AA0B60910C0470910D04BC
:1005F00080910E0490910F048E010F5F1F4F21E038
:1006000041E00E94AF1461E084E00E94BC0B86EAE6
:1006100091E00E94AA0BC8010E94AA0B0E947D02D1
:100620002A960FB6F894DEBF0FBECDBFDF91CF91F3
:100630001F910F9108950F931F93CF93DF93CDB721
:10064000DEB764970FB6F894DEBF0FBECDBF83E36D
:1006500093E00E94881060910804709109048091D1
:100660000A0490910B048E010F5F1F4F21E041E0BF
:100670000E94AF1460910C0470910D0480910E04DF
:1006800090910F04065F1F4F21E041E00E94AF14DC
:1006900060E080E00E94BC0B86EA91E00E94AA0B19
:1006A000C8010E94AA0B61E080E00E94BC0B82EAB4
:1006B00091E00E94AA0BCE0101960E94AA0B6496BB
:1006C0000FB6F894DEBF0FBECDBFDF91CF911F9163
:1006D0000F9108950F931F93CF93DF93CDB7DEB79C
:1006E0006E970FB6F894DEBF0FBECDBF83E393E0E5
:1006F0000E94881060E080E00E94BC0B80EA91E0DC
:100700000E94AA0B61E080E00E94BC0B8EE991E0A0
:100710000E94AA0B6091FA037091FB038091FC0385
:100720009091FD038E010F5F1F4F21E041E00E9479
:10073000AF146091020470910304809104049091BD
:100740000504065F1F4F21E041E00E94AF14609155
:100750000C0470910D0480910E0490910F04065FBB
:100760001F4F21E041E00E94AF1460E083E00E944F
:10077000BC0B60E083E393E00E94850FCE010196FD
:100780000E94AA0B61E083E00E94BC0B61E083E35E
:1007900093E00E94850FCE010B960E94AA0B60E0A9
:1007A0008AE00E94BC0B8BE991E00E94AA0BC80171
:1007B0000E94AA0B6E960FB6F894DEBF0FBECDBF97
:1007C000DF91CF911F910F910895EF92FF920F93B8
:1007D0001F93CF93DF93CDB7DEB764970FB6F8942E
:1007E000DEBF0FBECDBF60910804709109048091F7
:1007F0000A0490910B049E012F5F3F4F79018901FC
:1008000021E041E00E94AF1420E030E040E251E4FA
:10081000609108047091090480910A0490910B047E
:100820000E940117065F1F4F87FF11C0FF92EF92D2
:1008300082EE92E09F938F931F930F930E94EA1B87
:100840000F900F900F900F900F900F9004C0B70172
:10085000C8010E94E31B61E08AE00E94BC0B88E7AC
:1008600091E00E94AA0BC8010E94AA0B64960FB6E1
:10087000F894DEBF0FBECDBFDF91CF911F910F91D6
:10088000FF90EF900895EF92FF920F931F93CF93F5
:10089000DF931092300180911004882319F005E451
:1008A00011E002C006E511E061E170E080E090E057
:1008B0000E940F1BEC01009741F01882B8010E94C2
:1008C000E31B80E1E82EF12C02C0E12CF12C83E344
:1008D00093E00E94881060E080E00E94BC0B87E6F5
:1008E00091E00E94AA0B61E080E00E94BC0BA7018E
:1008F000BE0183E393E00E94470F68EE73E080E05F
:1009000090E00E94010F13E083E393E00E948810BF
:1009100060E080E00E94BC0B87E691E00E94AA0B99
:1009200061E080E00E94BC0BA701BE0183E393E07D
:100930000E94470F68EC70E080E090E00E94010F99
:1009400083E393E00E94881068EC70E080E090E020
:100950000E94010F1150C1F6CE01DF91CF911F917E
:100960000F91FF90EF900C94861A80E480937C00A6
:1009700080917A00806480937A0080917A0086FD6D
:10098000FCCF609178008091790070E0782B072E81
:10099000000C880B990B0E94081720E030E040EA19
:1009A00050E40E94671720E030EC4FE754E40E94C7
:1009B00041192AE037ED43E25CE30E94411960935C
:1009C00008047093090480930A0490930B0408951B
:1009D000CF92DF92EF92FF92C090FE03D090FF0380
:1009E000E0900004F090010420E030E048EC52E494
:1009F000C701B6010E940117811115C060E081E0B6
:100A00000E94BC0B63E083E393E00E94850F61E0EA
:100A100081E00E94BC0B86EE92E0FF90EF90DF90A9
:100A2000CF900C94AA0B20E030E0A901C701B601D9
:100A30000E940117811115C060E081E00E94BC0B8B
:100A400086EE92E00E94AA0B61E081E00E94BC0B5E
:100A500063E083E393E0FF90EF90DF90CF900C94FE
:100A6000850FFF90EF90DF90CF9008956F927F9267
:100A70008F929F92AF92BF92CF92DF92EF92FF92AE
:100A80000F931F93CF93DF93CDB7DEB72A970FB69F
:100A9000F894DEBF0FBECDBFE091F7034E2F50E0BC
:100AA0004331510508F074C1FA01EC5CFF4F0C941E
:100AB000AC1881113DC00E943B0FDC01CB01845F6B
:100AC0009140A109B1094C015D016090E80270906C
:100AD000E902B091EA02A091EB02F091EC02E09100
:100AE000ED020091EE021091EF029401A50160E089
:100AF00070E080E090E05301CB2EDA2EEF2EFE2E38
:100B00000E94CB1808F444C10E943B0F4B015C01CA
:100B10006093E8029092E902A092EA02B092EB029E
:100B20001092EC021092ED021092EE021092EF027F
:100B30000E946A030E94E8040E94E50329C1811112
:100B40002BC00E943B0FDC01CB01845F9140A109C7
:100B5000B1094C015D016090E8027090E902B0912A
:100B6000EA02A091EB02F091EC02E091ED0200911B
:100B7000EE021091EF029401A50160E070E080E0C8
:100B800090E05301CB2EDA2EEF2EFE2E0E94CB18D2
:100B900008F4FEC00E943B0F0E943B0F4B015C011A
:100BA0006093E8029092E902A092EA02B092EB020E
:100BB0001092EC021092ED021092EE021092EF02EF
:100BC0000E941B030E944902E3C0882309F4E0C08D
:100BD0000E94BF02DDC0882309F4DAC083E393E0FA
:100BE0000E94881060E080E00E94BC0B81EF91E0E1
:100BF0000E94AA0B61E086E00E94BC0B6091F303A7
:100C00007091F4038091F5039091F6038E010F5FCC
:100C10001F4F20E041E00E94AF14C8010E94AA0BC0
:100C20008EEE91E04BC0882309F4B2C00E94DC0232
:100C3000AFC0882309F4ACC083E393E00E9488101E
:100C400060E080E00E94BC0B8BE092E00E94AA0B67
:100C500060913B0170913C0180913D0190913E017A
:100C60008E010F5F1F4F21E041E00E94AF1461E051
:100C700080E00E94BC0B82E092E086C0882309F4E9
:100C800087C083E393E00E94881060E080E00E94C8
:100C9000BC0B85E392E00E94AA0B61E081E00E9418
:100CA000BC0B8CE192E00E94AA0B80910704882380
:100CB00019F089E292E002C085E292E00E94AA0B5C
:100CC0000E947D0265C0882309F462C083E393E03B
:100CD0000E94881060E080E00E94BC0B85E392E0F7
:100CE0000E94AA0B60913601709137018091380102
:100CF000909139018E010F5F1F4F21E041E00E946A
:100D0000AF1461E080E00E94BC0B8CE192E03CC03B
:100D10008823F1F183E393E00E94881060E080E093
:100D20000E94BC0B85E392E00E94AA0B61E081E087
:100D30000E94BC0B8CE292E00E94AA0B80910604F8
:100D4000B6CF882329F183E393E00E94881060E006
:100D500080E00E94BC0B85E392E00E94AA0B6091A8
:100D600032017091330180913401909135018E01EF
:100D70000F5F1F4F21E041E00E94AF1461E080E06F
:100D80000E94BC0B8CE292E00E94AA0BC80196CF95
:100D90002A960FB6F894DEBF0FBECDBFDF91CF917C
:100DA0001F910F91FF90EF90DF90CF90BF90AF9089
:100DB0009F908F907F906F900895CF92DF92EF92E7
:100DC000FF920F931F93CF93DF93E091F7034E2F82
:100DD00050E0FA013197E231F10508F070C1E95BAA
:100DE000FF4F0C94AC180091F3031091F403D091D1
:100DF000F503C091F603882319F120E030E048ECB8
:100E000052E4B8018D2F9C2F0E940117882361F0B6
:100E100020E030E040E85FE3B8018D2F9C2F0E9476
:100E2000D5188B01D82FC92FC801AD2FBC2F8093A7
:100E3000F3039093F403A093F503B093F6033FC13B
:100E400020E030E0A901B8018D2F9C2F0E940117EE
:100E5000882351F020E030E040E85FE3B8018D2FB7
:100E60009C2F0E94D41803C060E070E0CB01609317
:100E7000F3037093F4038093F5039093F6031FC17B
:100E8000C0900C04D0900D04E0900E04F0900F047C
:100E90008823C1F020E030E048E452E4C701B60105
:100EA0000E94E91987FF09C020E030E040E05FE3DD
:100EB000C701B6010E94D5181CC060E070E088E44C
:100EC00092E417C020E030E040E251E4C701B601EF
:100ED0000E94011718164CF420E030E040E05FE378
:100EE000C701B6010E94D41804C060E070E080E23F
:100EF00091E460930C0470930D0480930E0490931E
:100F00000F04DDC0C0903B01D0903C01E0903D015A
:100F1000F0903E018823C1F020E030E040E251E44F
:100F2000C701B6010E94E91987FF09C020E030E03F
:100F300040E05FE3C701B6010E94D5181CC060E025
:100F400070E080E291E417C020E030E040E85FE329
:100F5000C701B6010E94011718164CF420E030E0DA
:100F600040E05FE3C701B6010E94D41804C060E00E
:100F700070E080E89FE360933B0170933C018093B5
:100F80003D0190933E019BC09091070481E0892729
:100F90008093070494C0C0903601D0903701E09050
:100FA0003801F09039018823C1F020E030E048ECAE
:100FB00052E4C701B6010E94E91987FF09C020E089
:100FC00030E040E050E4C701B6010E94D5181AC0D5
:100FD00060E070E088EC92E415C020E030E0A90108
:100FE000C701B6010E94011718164CF420E030E04A
:100FF00040E050E4C701B6010E94D41803C060E08D
:1010000070E0CB0160933601709337018093380113
:101010009093390154C09091060481E08927809310
:1010200006044DC0C0903201D0903301E0903401ED
:10103000F09035018823C1F020E030E048EC52E424
:10104000C701B6010E94E91987FF09C020E030E01E
:1010500040E050E4C701B6010E94D5181AC060E014
:1010600070E088EC92E415C020E030E0A901C701EF
:10107000B6010E94011718164CF420E030E040E061
:1010800050E4C701B6010E94D41803C060E070E0CC
:10109000CB016093320170933301809334019093BC
:1010A00035010DC060913A0181E0682760933A01F3
:1010B0008CE00E94370E109207041092060481E023
:1010C000DF91CF911F910F91FF90EF90DF90CF9024
:1010D0000C9436052F923F924F925F926F927F92BF
:1010E0008F929F92AF92BF92CF92DF92EF92FF9238
:1010F0000F931F93CF93DF9387E00E940E0E4C0156
:10110000892BD9F080911103811117C081E0809360
:1011100011030E943B0FDC01CB01809309039093E4
:101120000A03A0930B03B0930C0310920D031092CB
:101130000E0310920F031092100380911103882365
:1011400009F4ABC0892809F0A8C0109211030E94CD
:101150003B0F2B013C012AEB3FEF4FEF5FEF6FEFAF
:101160007FEF8FEF9FEFA0900903B0900A03C0902C
:101170000B03D0900C03E0900D03F0900E03009150
:101180000F03109110030E94C21812012301510194
:101190006201E12CF12C00E010E00E94B9182D3A18
:1011A000314041055105610571058105910511F039
:1011B00008F073C0809130018823B1F010921004C0
:1011C000DF91CF911F910F91FF90EF90DF90CF9023
:1011D000BF90AF909F908F907F906F905F904F9057
:1011E0003F902F900C9443048091F903882309F4D5
:1011F00054C08091F8038823A9F081E0DF91CF915A
:101200001F910F91FF90EF90DF90CF90BF90AF9024
:101210009F908F907F906F905F904F903F902F9016
:101220000C94DD06809131018F5F809331019091A4
:101230001004992319F0913061F017C0843018F030
:1012400081E080933101E0913101F0E0E252FD4F05
:1012500009C0883010F090933101E0913101F0E045
:10126000EA52FD4F80818093F70380E00E94BF0126
:1012700081E0DF91CF911F910F91FF90EF90DF9070
:10128000CF90BF90AF909F908F907F906F905F9026
:101290004F903F902F900C943605DF91CF911F9186
:1012A0000F91FF90EF90DF90CF90BF90AF909F9005
:1012B0008F907F906F905F904F903F902F90089508
:1012C0002F923F924F925F926F927F928F929F9256
:1012D000AF92BF92CF92DF92EF92FF920F931F9344
:1012E000CF93DF9388E00E940E0E4C01892BD9F03A
:1012F00080910803811117C081E0809308030E9448
:101300003B0FDC01CB018093000390930103A0937A
:101310000203B0930303109204031092050310928A
:1013200006031092070380910803882309F4ADC0D7
:10133000892809F0AAC0109208030E943B0F2B01D4
:101340003C012AEB3FEF4FEF5FEF6FEF7FEF8FEF47
:101350009FEFA0900003B0900103C0900203D090D3
:101360000303E0900403F09005030091060310913D
:1013700007030E94C2181201230151016201E12CEE
:10138000F12C00E010E00E94B9182D3A31404105DF
:101390005105610571058105910511F008F075C0D1
:1013A000809130018823B9F081E080931004DF91AF
:1013B000CF911F910F91FF90EF90DF90CF90BF9052
:1013C000AF909F908F907F906F905F904F903F90E5
:1013D0002F900C9443048091F903882309F455C09D
:1013E0008091F8038823A9F080E0DF91CF911F91CD
:1013F0000F91FF90EF90DF90CF90BF90AF909F90B4
:101400008F907F906F905F904F903F902F900C94B3
:10141000DD0680913101815080933101909110045B
:10142000992319F0913061F018C0811103C083E055
:1014300080933101E0913101F0E0E252FD4F0AC0AA
:10144000811103C087E080933101E0913101F0E028
:10145000EA52FD4F80818093F70381E00E94BF0133
:1014600081E0DF91CF911F910F91FF90EF90DF907E
:10147000CF90BF90AF909F908F907F906F905F9034
:101480004F903F902F900C943605DF91CF911F9194
:101490000F91FF90EF90DF90CF90BF90AF909F9013
:1014A0008F907F906F905F904F903F902F90089516
:1014B000CF93DF93EC01BC01990F880B990B0E942D
:1014C000081720E030E048EC52E40E94E9191816B1
:1014D00014F4C4E6D0E02FEF30E0DE010E94B21831
:1014E00024E630E040E050E00E942518B9018BE08E
:1014F000DF91CF910C94A20ECF93DF93EC01BC014E
:10150000990F880B990B0E94081720E030E048ECF7
:1015100052E40E94E919181614F4C4E6D0E02FEF43
:1015200030E0DE010E94B21824E630E040E050E0F6
:101530000E942518B9018AE0DF91CF910C94A20E88
:1015400085ED8093BC008091BC0084FDFCCF10929F
:101550002203089540918C03262F30E0240F311D83
:1015600021323105DCF4209122032430C9F4FC013E
:1015700080E090E0861758F430918C032191DC01D3
:10158000A459BC4FA30FB11D2C930196F3CF8091AA
:101590008C03680F60938C0380E0089581E00895C8
:1015A00082E00895089508950895E0911B038091C5
:1015B0001A03E81730F4F0E0E45BFC4F808190E020
:1015C00008958FEF9FEF089590911B0380911A0368
:1015D000981750F4E92FF0E0E45BFC4F208130E0F5
:1015E0009F5F90931B0302C02FEF3FEFC901089547
:1015F00080911A0390E020911B03821B91090895AA
:10160000CF92DF92EF92FF920F931F93CF93DF93CE
:101610007C01CB018A0120912303222389F0EB0175
:101620006B01C40ED51ECC15DD0569F06991D7019B
:10163000ED91FC910190F081E02DC7010995F3CF68
:10164000642F0E94AA0AC801DF91CF911F910F91C8
:10165000FF90EF90DF90CF900895CF93DF931F928C
:10166000CDB7DEB76983209123032223D1F02091E7
:101670002603203240F021E030E0FC013383228356
:1016800080E090E015C080912403E82FF0E0ED5257
:10169000FC4F998190838F5F80932403809326036E
:1016A00005C061E0CE0101960E94AA0A81E090E0A7
:1016B0000F90DF91CF910895833081F028F481302D
:1016C00099F08230A1F008958730A9F08830B9F000
:1016D0008430D1F4809180008F7D03C080918000A0
:1016E0008F7780938000089584B58F7702C084B58A
:1016F0008F7D84BD08958091B0008F7703C0809165
:10170000B0008F7D8093B00008953FB7F89480912A
:10171000160390911703A0911803B091190326B5F1
:10172000A89B05C02F3F19F00196A11DB11D3FBF19
:10173000BA2FA92F982F8827820F911DA11DB11DA7
:10174000BC01CD0142E0660F771F881F991F4A95A3
:10175000D1F70895009769F0FC0101900020E9F7A6
:101760003197AF01481B590BBC0183E393E00C9404
:10177000470F80E090E008950F931F93CF93DF937E
:10178000CDB7DEB728970FB6F894DEBF0FBECDBF3A
:10179000009146021091470220914802309149027F
:1017A0000D831E832F83388700914A0210914B02CC
:1017B00020914C0230914D0209831A832B833C8384
:1017C00090913A03691710F06FEF690F40913B0356
:1017D000262F30E0FE01E20FF31F403121F4943058
:1017E00011F4618101C06581680F606883E393E053
:1017F00028960FB6F894DEBF0FBECDBFDF91CF9114
:101800001F910F910C948010EF92FF920F931F93F2
:10181000CF93DF938B01877098E0899FB0011124EB
:10182000606483E393E00E94801083E790E0019777
:10183000F1F7E801085F1F4F8BE9E82EF12C699161
:1018400083E393E00E94850FC7010197F1F7C0176A
:10185000D107A9F7DF91CF911F910F91FF90EF90E2
:10186000089530912603313208F04BC08091220355
:101870008111FCCF9091250322E02093220321E0E7
:10188000209321032FEF2093D2031092D1033093A2
:10189000D003E3EDF3E0A0EBB3E020E0321721F05A
:1018A00041914D932F5FFACF1092AF032091AF0378
:1018B000990F922B9093AF0390912003913061F494
:1018C000109220039091AF039093BB009091BC00C5
:1018D00093FDF8CF95EC01C095EE9093BC009091EC
:1018E00022039230E1F39091D2039F3F79F08091EF
:1018F000D203803241F08091D203803331F084E012
:1019000005C081E003C082E001C083E0109224039F
:1019100010922603109223030895FC0123812223B1
:10192000B1F08181682B6083828191E090932303E1
:1019300080932503109224031092260387E293E0FC
:101940000E942D0B0E94310C282F30E002C020E0B5
:1019500030E081E090E0232B11F080E090E00895EA
:10196000EF92FF920F931F93CF938C01FC0184E0C1
:10197000C0E060FF02C09589C92B66958150319601
:101980008111F7CF413011F4F8014489F8018585C0
:10199000C82BC42B7801FEE0EF0EF11CF801628920
:1019A0006C2BC7010E948D0CF801628960956C2335
:1019B000C701CF911F910F91FF90EF900C948D0C68
:1019C0001F920F920FB60F9211242F933F934F93B4
:1019D0005F936F937F938F939F93AF93BF93EF9397
:1019E000FF938091B900887F803609F49CC068F528
:1019F000883209F45BC090F4803109F454C038F4A3
:101A0000882309F4F6C0883009F44DC0F6C0883147
:101A100009F44CC0803209F45DC0EFC0803409F491
:101A200068C048F4803309F455C0883309F0E5C034
:101A30008093D203D8C0803509F44FC0883509F4AB
:101A40005DC0883409F0D9C0D6C0883909F4C7C050
:101A5000A8F4883709F467C038F4883609F463C0FD
:101A6000803709F460C0C9C0883809F4B8C080392B
:101A700009F45FC0803809F0C0C05BC0803B09F446
:101A800086C038F4803A09F466C0883A09F47FC009
:101A9000B4C0803C09F4A7C0883C09F4A4C0883BCA
:101AA00009F48AC0AAC08091AF0310C09091D103FD
:101AB0008091D003981770F5E091D10381E08E0FEB
:101AC0008093D103F0E0E055FC4F80818093BB0010
:101AD00085EC86C08093D2038EC0E091D10381E073
:101AE0008E0F8093D1038091BB00F0E0E055FC4F56
:101AF00080839091D1038091D0036EC0E091D10397
:101B000081E08E0F8093D1038091BB00F0E0E0551F
:101B1000FC4F80838091210381116DC081E080930F
:101B2000200384EA61C083E0809322031092AE0315
:101B3000CFCF8091AE03803208F051C0E091AE0368
:101B400081E08E0F8093AE038091BB00F0E0E257FE
:101B5000FC4F8083BDCF85EC8093BC0010922203A4
:101B60008091AE03803230F4E091AE03F0E0E257B2
:101B7000FC4F10826091AE0370E0E0911E03F09183
:101B80001F038EE893E009951092AE0336C084E0FF
:101B90008093220310928D0310928C03E0911C031A
:101BA000F0911D03099580918C03811105C081E09E
:101BB00080938C0310926C03E0918D0381E08E0F73
:101BC00080938D03F0E0E459FC4F80818093BB004B
:101BD00090918D0380918C03981708F479CF85E854
:101BE0008093BC000AC085EC8093BC001092220355
:101BF00004C01092D2030E94A00AFF91EF91BF91FE
:101C0000AF919F918F917F916F915F914F913F9194
:101C10002F910F900FBE0F901F901895CF93DF93C9
:101C2000282F30E0F901EE50FE4F8491F901E25285
:101C3000FE4FD491F901E653FE4FC491CC2391F0AD
:101C400081110E945C0BEC2FF0E0EE0FFF1FE054BF
:101C5000FE4FA591B491EC91ED2381E090E021F449
:101C600080E002C080E090E0DF91CF9108951F9363
:101C7000CF93DF93282F30E0F901EE50FE4F84918F
:101C8000F901E252FE4FD491F901E653FE4FC4919F
:101C9000CC23C1F0162F81110E945C0BEC2FF0E0D9
:101CA000EE0FFF1FEA54FE4FA591B4919FB7F89431
:101CB000111104C08C91D095D82302C0EC91DE2B79
:101CC000DC939FBFDF91CF911F910895CF93DF9356
:101CD00090E0FC01E252FE4F2491FC01E653FE4FDE
:101CE0008491882361F190E0880F991FFC01E455ED
:101CF000FE4FC591D491FC01EA54FE4FA591B491D9
:101D0000611109C09FB7F894888120958223888348
:101D1000EC912E230BC0623061F49FB7F894888158
:101D2000322F309583238883EC912E2B2C939FBFE9
:101D300006C08FB7F894E8812E2B28838FBFDF91E0
:101D4000CF9108951F93CF93DF93182FEB0161E09C
:101D50000E94660E209711F460E004C0CF3FD105C9
:101D600039F461E0812FDF91CF911F910C94370EF0
:101D7000E12FF0E0EE50FE4FE491E330F9F048F44B
:101D8000E130B9F0E230A1F584B5806284BDC8BD10
:101D900034C0E730E9F0E83019F1E43049F58091DA
:101DA0008000806280938000D0938B00C0938A0073
:101DB00024C084B5806884BDC7BD1FC080918000E9
:101DC000806880938000D0938900C093880015C0FC
:101DD0008091B00080688093B000C093B3000DC0C4
:101DE0008091B00080628093B000C093B40005C0C1
:101DF000C038D1050CF0B5CFAFCFDF91CF911F9197
:101E000008958F929F92AF92BF92CF92DF92EF92FE
:101E1000FF926B017C010E94850B4B015C01C11498
:101E2000D104E104F104F1F00E94850BDC01CB0147
:101E300088199909AA09BB09883E9340A105B105F3
:101E400070F321E0C21AD108E108F10888EE880E8B
:101E500083E0981EA11CB11CC114D104E104F1045B
:101E600019F7DDCFFF90EF90DF90CF90BF90AF904C
:101E70009F908F9008952FB7F894609112037091FE
:101E8000130380911403909115032FBF0895CF92EF
:101E9000DF92EF92FF920F931F93CF93DF936C012A
:101EA0007A018B01C0E0D0E0CE15DF0581F0D801CA
:101EB0006D918D01D601ED91FC910190F081E02DA5
:101EC000C6010995892B11F02196EECF7E01C7013D
:101ED000DF91CF911F910F91FF90EF90DF90CF9006
:101EE000089521E001C0220F6A95EAF7DC011C96F3
:101EF0002C931C971A965C934E931997ED91FC9135
:101F00000484F585E02D60E00994DC01ED91FC91FD
:101F10000684F785E02D41E0099581E090E0089581
:101F20000E94D51B0F931F93CF93DF93062F0F7043
:101F3000423019F440E0602F0EC0142FEC0170E025
:101F400084E0759567958A95E1F7CE010E94B00C03
:101F5000412F602FCE01DF91CF911F910F910C94F3
:101F6000B00CFC0184858823A9F0218532852115D8
:101F7000310519F4611106C007C02130310521F483
:101F8000611102C0858701C015866585CF010E9657
:101F90000C948D0C0895EF92FF920F931F93CF93A3
:101FA000DF93EC01062FF42EE22E8B85888B1092A6
:101FB0001B0310921A03109224031092260310920E
:101FC000220311E0109321031092200361E082E1CB
:101FD0000E94370E61E083E10E94370E8091B900C4
:101FE0008E7F8093B9008091B9008D7F8093B90076
:101FF00088E48093B80085E48093BC0082ED9AE089
:1020000090931D0380931C0383ED9AE090931F032C
:1020100080931E03888910932303809325031092D5
:102020002403109226030E94310C91E0811190E06C
:10203000998B811105C087E293E00E94E40A8E87A4
:102040008989882339F01F861C8260E0CE010E96B4
:102050000E948D0C2E2D4F2D602FCE01DF91CF9140
:102060001F910F91FF90EF900C9434011F920F92EB
:102070000FB60F9211242F933F938F939F93AF939B
:10208000BF938091120390911303A0911403B09118
:10209000150330912B0423E0230F2D3720F40196F4
:1020A000A11DB11D05C026E8230F0296A11DB11D7B
:1020B00020932B048093120390931303A093140393
:1020C000B09315038091160390911703A091180304
:1020D000B09119030196A11DB11D80931603909331
:1020E0001703A0931803B0931903BF91AF919F9169
:1020F0008F913F912F910F900FBE0F901F901895C9
:10210000DC01ED91FC910684F785E02D40E0099417
:1021100061E00E9480108BE39FE10197F1F7089541
:10212000E7E2F3E01382128288EE93E0A0E0B0E0F1
:1021300084839583A683B78382E592E0918380832D
:10214000E3E3F3E01382128284E692E091838083DA
:10215000108A8FEF87871686118A8FE3838714860C
:1021600015861286118684E0828B82E0838B81E063
:10217000848B80E1858B80E2868B80E4878B80E88E
:10218000808F40E050E063E0CF010C94710FCF935B
:10219000DF93CDB7DEB728970FB6F894DEBF0FBE3A
:1021A000CDBF789484B5826084BD84B5816084BDE0
:1021B00085B5826085BD85B5816085BD80916E00E5
:1021C000816080936E001092810080918100826016
:1021D0008093810080918100816080938100809153
:1021E00080008160809380008091B1008460809342
:1021F000B1008091B00081608093B00080917A003E
:10220000846080937A0080917A00826080937A0063
:1022100080917A00816080937A0080917A00806852
:1022200080937A001092C10060E089E00E94660EFF
:1022300060E088E00E94660E60E087E00E94660E23
:1022400060E086E00E94660E60E08EE00E94660E0E
:1022500061E08DE00E94660E61E084E00E94660EFF
:1022600061E08CE00E94660E61E08AE00E94660EEA
:1022700061E08BE00E94660E20E042E060E183E3D3
:1022800093E00E94CB0F61E083E393E00E94B10FE3
:1022900068E271E080E00E94040C60E271E081E09D
:1022A0000E94040C68E171E082E00E94040C60E18D
:1022B00071E083E00E94040C68E071E084E00E9419
:1022C000040C60E071E085E00E94040C83E393E07D
:1022D0000E94881060E080E00E94BC0B64E083E311
:1022E00093E00E94850F65E083E393E00E94850FF1
:1022F00060E083E00E94BC0B87EA92E00E94AA0B98
:1023000061E080E00E94BC0B86E992E00E94AA0B8B
:1023100068EE73E080E090E00E94010F83E393E0B9
:102320000E94881060E080E00E94BC0B85E892E08B
:102330000E94AA0B61E080E00E94BC0B84E792E05F
:102340000E94AA0B68EE73E080E090E00E94010F0B
:1023500083E393E00E94881060E080E00E94BC0B61
:1023600085EC92E00E94AA0B61E080E00E94BC0B29
:1023700084EB92E00E94AA0B64E670E080E090E0BB
:102380000E94010F0E9460090E946A08809130013A
:102390008111F8CF80911004811103C01092F703CE
:1023A00005C0813019F48AE08093F70380E00E9431
:1023B000360560913A018CE00E94370E809110043E
:1023C00081113BC080E090E0A4EAB1E480930C046A
:1023D00090930D04A0930E04B0930F0480E090E05E
:1023E000A0E2B1E48093F3039093F403A093F50388
:1023F000B093F60386E696E6A4EBB1E4809302047C
:1024000090930304A0930404B09305048AE999E926
:10241000A3E9B1E48093FA039093FB03A093FC0338
:10242000B093FD0390E0892E90E0992E412C512C21
:1024300028EC622E22E4722EBBC0813099F780E036
:1024400090E0A4EAB1E480930C0490930D04A0936F
:102450000E04B0930F0410920604C12CD12C88E412
:10246000E82E82E4F82EC0923201D0923301E0923D
:102470003401F092350180E090E00E947C0A1092D5
:102480000704C0923601D0923701E0923801F092F1
:10249000390180E090E00E94580A80E090E0A0E0DE
:1024A000B1E480933B0190933C01A0933D01B09334
:1024B0003E01B8CF0E943B0F8B019C016093110439
:1024C00010931204209313043093140410921504F3
:1024D0001092160410921704109218048DE00E94B6
:1024E0000E0E61E0892B09F060E08DE00E94370E4E
:1024F00089E00E940E0E8C01892B09F081C0809129
:102500002104811199C00E9460090E946A0886E036
:102510000E940E0E8C01892B09F003C180912A04C0
:1025200081111BC110911004111199C10E94B504B1
:10253000C0900804D0900904E0900A04F0900B04C5
:102540002091020430910304409104045091050449
:10255000C701B6010E94E91987FD59C120E030E0AA
:1025600048EC52E46091FE037091FF0380910004F7
:10257000909101040E940117811149C11092FE033C
:102580001092FF03109200041092010460E084E0B6
:102590000E94370E8091F903811102C00E94E80465
:1025A00080E00E9436058114910411F00E94000021
:1025B0000E943B0F5B016C019B01A60160E070E093
:1025C00080E090E0A0901104B0901204C090130439
:1025D000D0901404E0901504F090160400911704B4
:1025E000109118040E94C218233F31404105510543
:1025F000610571058105910509F008F479CF5ACF7D
:102600008091210481117BCF81E0809321040E947D
:102610003B0F9B01AC016093190430931A04409363
:102620001B0450931C0410921D0410921E0410925F
:102630001F041092200463CF012B09F064CF109285
:1026400021040E943B0F69837A838B839C832AEB4E
:102650003FEF4FEF5FEF6FEF7FEF8FEF9FEFA090B8
:102660001904B0901A04C0901B04D0901C04E09090
:102670001D04F0901E0400911F04109120040E947C
:10268000C218C980DA80EB80FC8056016701E12C1A
:10269000F12C8701A982BA82CB82DC82ED82FE8294
:1026A0000F831887E12CF12C00E010E00E94B9188C
:1026B0002D3A3140410551056105710581059105AE
:1026C00011F008F020CF9091F90380911004992324
:1026D00091F01092F9031092F803811103C0109247
:1026E000F70305C0813019F41AE01093F70381E075
:1026F0000E94360508CF91E09093F903811106C03E
:10270000E0913101F0E0E252FD4F07C0813079F7EE
:10271000E0913101F0E0EA52FD4F80818093F703B0
:10272000E6CF80912A048111F9CEE1E0E0932A04FA
:102730000E943B0F9B01AC01609322043093230461
:1027400040932404509325041092260410922704E9
:102750001092280410922904E1CE012B09F0E2CE58
:1027600010922A040E943B0F69837A838B839C8397
:102770002AEB3FEF4FEF5FEF6FEF7FEF8FEF9FEFB2
:10278000A0902204B0902304C0902404D09025048B
:10279000E0902604F0902704009128041091290469
:1027A0000E94C218C980DA80EB80FC805601670164
:1027B000E12CF12C8701A982BA82CB82DC82ED82E6
:1027C000FE820F831887E12CF12C00E010E00E94BC
:1027D000B9182D3A31404105510561057105810552
:1027E000910511F008F09ECE8091F903882309F439
:1027F00099CE8091F803882319F01092F80303C052
:1028000011E01093F80381E00E9436058BCE2091F1
:10281000FA033091FB034091FC035091FD03C70183
:10282000B6010E94011718160CF4BACE20E030E071
:10283000A9016091FE037091FF03809100049091C3
:1028400001040E9401178111ABCE4092FE03509209
:10285000FF03609200047092010461E098CE113091
:1028600009F09ECE0E94B50480913A01882309F4B4
:1028700047C0209108043091090440910A04509106
:102880000B0460910C0470910D0480910E049091E2
:102890000F040E94D41820913B0130913C014091DB
:1028A0003D0150913E010E9467176B017C0120E0C1
:1028B00030E0A9010E94E919181684F4C701B60195
:1028C0000E94B319CB010E94580A1093070480E0BC
:1028D00090E00E947C0A1092060462CE80E090E0B4
:1028E0000E94580A10920704C701B60190580E942E
:1028F000B319CB010E947C0A81E08093060450CE7C
:102900008091070481110BC080910604811119C0C8
:1029100080E090E00E94580A80E090E01DC0609145
:1029200036017091370180913801909139010E94F0
:10293000B319CB010E94580A80910604882309F438
:102940002FCE6091320170913301809134019091CA
:1029500035010E94B319CB010E947C0A21CEEF926F
:102960000F931F93CF93DF93E80147FD02C034E03C
:1029700001C034E1042E000C550B57FF03C05195E4
:1029800041955109E32E022F242FAE010E94CF144E
:10299000CE01DF91CF911F910F91EF900895A9E0A3
:1029A000B0E0E5EDF4E10C944A186A01122FB02E64
:1029B0002BE3201720F0FF24F394F00E02C02CE349
:1029C000F22E0F2D27E0AE014F5F5F4F0E942916B8
:1029D000BC014981842F8970813031F0E1FC06C04F
:1029E000E0FE06C090E205C09DE203C09BE201C08C
:1029F00090E05E2D507143FF3CC0911102C083E016
:102A000001C084E0811718F4212F281B01C020E0A9
:102A100051110BC0F601822F30E2882319F0319357
:102A20008150FBCFC20ED11C20E0992329F0D601A2
:102A30009C93F60131966F01C6010396E2FE0AC02F
:102A40003EE4D6013C9341E411964C9311971296C3
:102A50003C9306C03EE6F601308341E64183328373
:102A6000FC01322F40E2332309F442C0419331503C
:102A7000FACF42FF44C0911102C083E001C084E05C
:102A8000811718F4212F281B01C020E051110BC021
:102A9000F601822F30E2882319F031938150FBCF69
:102AA000C20ED11C20E0992329F0D6019C93F60197
:102AB00031966F01C6010396E2FE0BC039E4D601E0
:102AC0003C933EE411963C93119736E412963C9366
:102AD00007C039E6F60130833EE6318336E63283BD
:102AE000FC01322F40E2332319F041933150FBCFE8
:102AF000FC01E20FF11D10828EEF9FEFA6C021E0D6
:102B000030E0911102C020E030E0161617061CF4E8
:102B1000FB01319602C0E1E0F0E02E0F3F1FBB2029
:102B200021F0EB2DF0E0319602C0E0E0F0E02E0F56
:102B30003F1FE12FF0E02E173F071CF4121B212F3F
:102B400001C020E08E2D887159F4F601822F30E209
:102B5000882319F031938150FBCFC20ED11C20E0A5
:102B6000992329F0D6019C93F60131966F015111FA
:102B70000BC0F601822F90E3882319F091938150C6
:102B8000FBCFC20ED11C20E00F2D060F9A81342FEF
:102B9000307144FF03C0913309F40150101624F43E
:102BA000093018F008E001C001E0AB0177FF02C076
:102BB00040E050E0FB01E41BF50BA1E0B0E0AC0FFE
:102BC000BD1FEA0FFB1F8EE2A82E4B01801A910851
:102BD0000B2D10E01195019511094F3FBFEF5B07D9
:102BE00021F4D601AC9211966D01641775072CF093
:102BF0008416950614F4818101C080E34150510987
:102C00003196D60111967D014017510724F0D60167
:102C10008C936701E2CF6417750739F4963320F47B
:102C2000953319F4311101C081E3F6018083F70176
:102C3000822F90E2882319F091938150FBCFF70106
:102C4000E20FF11D108280E090E02996ECE00C94F8
:102C50006618283008F027E03327DA01990F311D74
:102C600087FD916000966105710539F432602E5F31
:102C70003D9330E32A95E1F708959F3F30F0803887
:102C80007105610509F03C5F3C5F3D93913008F0B0
:102C90008068911DDF93CF931F930F93FF92EF9264
:102CA000192F987F9695E92F96959695E90FFF270E
:102CB000E45FFE4F99273327EE24FF24A701E701A5
:102CC00005900894079428F4360FE71EF81E491F54
:102CD000511D660F771F881F991F0694A1F7059055
:102CE000079428F4E70EF81E491F561FC11D770FE1
:102CF000881F991F661F0694A1F70590079428F472
:102D0000F80E491F561FC71FD11D880F991F661F38
:102D1000771F0694A1F70590079420F4490F561FDA
:102D2000C71FD81F990F661F771F881F0694A9F722
:102D300084911095177041F0D695C7955795479592
:102D4000F794E7941A95C1F7E2EBF0E068941590D8
:102D5000159135916591959105907FE27395E118F4
:102D6000F10A430B560BC90BD009C0F7E10CF11E59
:102D7000431F561FC91FD01D7EF4703311F48A956E
:102D8000E6CFE894015030F0080F0AF4002702174C
:102D900008F4202F2395022F7A3328F079E37D93CE
:102DA0002A95E9F710C07D932A9589F606949795A0
:102DB0006795379517951794E118F10A430B560B51
:102DC000C90BD00998F023957E9173957A3308F05A
:102DD00070E37C932013B8F77E9170617D9330F09F
:102DE000839571E37D9370E32A95E1F71124EF90C9
:102DF000FF900F911F91CF91DF91992787FD9095BB
:102E000008950E94431708F481E00895E89409C0EA
:102E100097FB3EF490958095709561957F4F8F4F0D
:102E20009F4F9923A9F0F92F96E9BB279395F69523
:102E3000879577956795B795F111F8CFFAF4BB0FA1
:102E400011F460FF1BC06F5F7F4F8F4F9F4F16C005
:102E5000882311F096E911C0772321F09EE8872F8F
:102E6000762F05C0662371F096E8862F70E060E04B
:102E70002AF09A95660F771F881FDAF7880F9695C4
:102E8000879597F90895990F0008550FAA0BE0E868
:102E9000FEEF16161706E807F907C0F0121613061C
:102EA000E407F50798F0621B730B840B950B39F45C
:102EB0000A2661F0232B242B252B21F408950A26C2
:102EC00009F4A140A6958FEF811D811D08950E94F0
:102ED0007A170C94EB170E94DD1738F00E94E41764
:102EE00020F0952311F00C94D4170C94DA171124C8
:102EF0000C941F180E94FC1770F3959FC1F3950F57
:102F000050E0551F629FF001729FBB27F00DB11D6D
:102F1000639FAA27F00DB11DAA1F649F6627B00DFD
:102F2000A11D661F829F2227B00DA11D621F739FE6
:102F3000B00DA11D621F839FA00D611D221F749FF4
:102F40003327A00D611D231F849F600D211D822F3B
:102F5000762F6A2F11249F5750409AF0F1F0882362
:102F60004AF0EE0FFF1FBB1F661F771F881F91508F
:102F70005040A9F79E3F510580F00C94D4170C9453
:102F80001F185F3FE4F3983ED4F3869577956795D5
:102F9000B795F795E7959F5FC1F7FE2B880F911DB9
:102FA0009695879597F9089597F99F6780E870E05F
:102FB00060E008959FEF80EC089500240A941616AF
:102FC000170618060906089500240A941216130617
:102FD000140605060895092E0394000C11F48823A5
:102FE00052F0BB0F40F4BF2B11F460FF04C06F5FC1
:102FF0007F4F8F4F9F4F089557FD9058440F551F97
:1030000059F05F3F71F04795880F97FB991F61F06A
:103010009F3F79F087950895121613061406551FE1
:10302000F2CF4695F1DF08C0161617061806991F4D
:10303000F1CF86957105610508940895E894BB2742
:1030400066277727CB0197F90895052E97FB1EF485
:1030500000940E943C1857FD07D00E947B1807FC83
:1030600003D04EF40C943C18509540953095219522
:103070003F4F4F4F5F4F08959095809570956195A4
:103080007F4F8F4F9F4F08952F923F924F925F92A5
:103090006F927F928F929F92AF92BF92CF92DF9268
:1030A000EF92FF920F931F93CF93DF93CDB7DEB7CD
:1030B000CA1BDB0B0FB6F894DEBF0FBECDBF099461
:1030C0002A88398848885F846E847D848C849B84B8
:1030D000AA84B984C884DF80EE80FD800C811B81C6
:1030E000AA81B981CE0FD11D0FB6F894DEBF0FBEF5
:1030F000CDBFED010895A1E21A2EAA1BBB1BFD0155
:103100000DC0AA1FBB1FEE1FFF1FA217B307E407C6
:10311000F50720F0A21BB30BE40BF50B661F771F1E
:10312000881F991F1A9469F76095709580959095FE
:103130009B01AC01BD01CF010895A29FB001B39FD7
:10314000C001A39F700D811D1124911DB29F700DB0
:10315000811D1124911D0895EE0FFF1F0590F4911C
:10316000E02D09940E949D18B7FF0895821B930BD0
:1031700008952A0D3B1D4C1D5D1D6E1D7F1D801F7A
:10318000911F08952A193B094C095D096E097F09B1
:10319000800B910B08952A153B054C055D056E05C6
:1031A0007F058007910708955058BB27AA270E94E2
:1031B000EC180C94EB170E94DD1738F00E94E4170E
:1031C00020F039F49F3F19F426F40C94DA170EF42A
:1031D000E095E7FB0C94D417E92F0E94FC1758F3F5
:1031E000BA17620773078407950720F079F4A6F5EC
:1031F0000C941E180EF4E0950B2EBA2FA02D0B0187
:10320000B90190010C01CA01A0011124FF27591B2B
:1032100099F0593F50F4503E68F11A16F040A22F31
:10322000232F342F4427585FF3CF469537952795A2
:10323000A795F0405395C9F77EF41F16BA0B620BA1
:10324000730B840BBAF09150A1F0FF0FBB1F661FE8
:10325000771F881FC2F70EC0BA0F621F731F841F2B
:1032600048F4879577956795B795F7959E3F08F051
:10327000B0CF9395880F08F09927EE0F9795879513
:1032800008950E9455190C94EB170E94E41758F00A
:103290000E94DD1740F029F45F3F29F00C94D41709
:1032A00051110C941F180C94DA170E94FC1768F344
:1032B0009923B1F3552391F3951B550BBB27AA27EF
:1032C00062177307840738F09F5F5F4F220F331F29
:1032D000441FAA1FA9F335D00E2E3AF0E0E832D0F1
:1032E00091505040E695001CCAF72BD0FE2F29D0F4
:1032F000660F771F881FBB1F261737074807AB07C6
:10330000B0E809F0BB0B802DBF01FF2793585F4F3A
:103310003AF09E3F510578F00C94D4170C941F1886
:103320005F3FE4F3983ED4F3869577956795B7951C
:10333000F7959F5FC9F7880F911D9695879597F927
:103340000895E1E0660F771F881FBB1F62177307A0
:103350008407BA0720F0621B730B840BBA0BEE1FB5
:1033600088F7E09508950E94BA196894B1110C94F9
:103370001F1808950E94041888F09F5798F0B92FDD
:103380009927B751B0F0E1F0660F771F881F991F9A
:103390001AF0BA95C9F714C0B13091F00E941E1806
:1033A000B1E008950C941E18672F782F8827B85F16
:1033B00039F0B93FCCF3869577956795B395D9F7F2
:1033C0003EF490958095709561957F4F8F4F9F4FFC
:1033D00008950E94431708F48FEF08950F931F93E9
:1033E000CF93DF938230910510F482E090E0E0917A
:1033F0002E04F0912F0420E030E0A0E0B0E0309700
:1034000019F1408151810281138148175907C8F091
:103410008417950769F4109731F012960C93129760
:1034200013961C9327C000932E0410932F0422C0E0
:103430002115310519F04217530718F49A01BD01FF
:10344000EF01DF01F801DBCF21153105F9F0281B71
:10345000390B2430310580F48A819B816115710517
:1034600021F0FB019383828304C090932F04809307
:103470002E04FE01329644C0FE01E20FF31F819339
:10348000919322503109398328833AC020912C042A
:1034900030912D04232B41F42091410130914201C0
:1034A00030932D0420932C0420913F013091400152
:1034B0002115310541F42DB73EB74091430150919C
:1034C0004401241B350BE0912C04F0912D04E217EC
:1034D000F307A0F42E1B3F0B2817390778F0AC0137
:1034E0004E5F5F4F2417350748F04E0F5F1F509314
:1034F0002D0440932C048193919302C0E0E0F0E00E
:10350000CF01DF91CF911F910F910895CF93DF935A
:10351000009709F481C0FC01329713821282A091B6
:103520002E04B0912F04109781F420813181820FF5
:10353000931F20912C0430912D042817390751F541
:10354000F0932D04E0932C0467C0ED0120E030E0FF
:10355000CE17DF0740F44A815B819E01411551057A
:10356000F1F0EA01F5CFD383C28340815181840F0A
:10357000951FC817D90759F488819981840F951F21
:103580000296918380838A819B8193838283211514
:10359000310529F4F0932F04E0932E043DC0E90196
:1035A000FB83EA8349915991C40FD51FEC17FD079E
:1035B00061F480819181840F951F0296E9019983BE
:1035C0008883828193819B838A83E0E0F0E0129676
:1035D0008D919C911397009719F0FD01DC01F7CFB5
:1035E0008D919C9111979D012E5F3F4F820F931FEC
:1035F00020912C0430912D042817390769F4309755
:1036000029F410922F0410922E0402C01382128209
:10361000B0932D04A0932C04DF91CF910895A0E0E6
:10362000B0E0E5E1FBE10C944818EC01009721F4CF
:10363000CB010E94EE19B4C0FC01E60FF71F9C01FC
:1036400022503109E217F30708F4A8C0D9010D91FF
:103650001C91119706171707B0F00530110508F4F3
:103660009BC0C80104978617970708F495C00250BD
:103670001109061B170B019311936D937C93CF01D6
:103680000E94861A89C05B01A01AB10A4C01800E03
:10369000911EA0912E04B0912F04612C712CE12C6D
:1036A000F12C109709F446C08D919C911197A815A3
:1036B000B905B1F56C0142E0C40ED11CCA14DB049B
:1036C00078F14C018A189B08640142E0C40ED11CB9
:1036D0001296BC9012971396AC91B5E0CB16D1041C
:1036E00040F0B282A38391828082D9016D937C9352
:1036F00009C00E5F1F4F800F911FF90191838083D6
:10370000EB2DFA2FE114F10431F0D7011396FC935D
:10371000EE93129741C0F0932F04E0932E043CC027
:103720006816790608F43C017D0112960D90BC9153
:10373000A02DB7CF80912C0490912D048816990666
:10374000E1F466167706C8F480913F01909140013C
:10375000009741F48DB79EB74091430150914401C9
:10376000841B950BE817F907C8F4F0932D04E09338
:103770002C04F901718360830FC0CB010E94EE1904
:103780007C01009759F0A801BE010E94DA1BCE010E
:103790000E94861AC70104C0CE0102C080E090E0FA
:1037A000CDB7DEB7EEE00C94641881E090E0F894B9
:1037B0000C949D1EFB01DC0102C001900D92415052
:1037C0005040D8F70895FB01DC0101900D920020D4
:1037D000E1F70895AEE0B0E0E0EFFBE10C945218A1
:1037E0000D891E8986E08C831A8309838FEF9FE7FA
:1037F0009E838D83AE01475E5F4F6F89788DCE01CA
:1038000001960E940C1CEF81F885E00FF11F1082D9
:103810002E96E4E00C946E18ABE0B0E0E2E1FCE13F
:103820000C9444186C017B018A01FC0117821682FA
:10383000838181FFCCC1CE0101963C01F6019381C9
:10384000F70193FD859193FF81917F01882309F40E
:10385000BAC1853239F493FD859193FF81917F013F
:10386000853229F4B60190E00E94031EE7CF912C27
:10387000212C312CFFE1F315D8F08B3279F038F49C
:10388000803279F08332A1F4232D20611DC08D3266
:1038900061F0803369F4232D216016C0832D82608E
:1038A000382EE32DE4603E2E2AC0F32DF8601DC0B3
:1038B00037FC2DC020ED280F2A3040F08E32B9F4AD
:1038C00036FC81C1232D2064322E19C036FE06C07D
:1038D0008AE0989E200D1124922E11C0EAE02E9EBF
:1038E000200D1124222EF32DF0623F2E08C08C36BD
:1038F00021F4832D8068382E02C0883641F4F70108
:1039000093FD859193FF81917F018111B3CF982F12
:103910009F7D9554933028F40C5F1F4F9FE399834C
:103920000DC0833631F0833771F0833509F059C00B
:1039300021C0F801808189830E5F1F4F8824839402
:10394000912C530113C02801F2E04F0E511CF801D5
:10395000A080B18036FE03C0692D70E002C06FEF19
:103960007FEFC5010E94F81D4C018201F32DFF7706
:103970003F2E16C0280122E0420E511CF801A08003
:10398000B18036FE03C0692D70E002C06FEF7FEF9B
:10399000C5010E94ED1D4C01F32DF0683F2E820100
:1039A00033FC1BC0822D90E088169906B0F4B60156
:1039B00080E290E00E94031E2A94F4CFF50137FCC8
:1039C000859137FE81915F01B60190E00E94031E50
:1039D00021102A9421E0821A91088114910471F730
:1039E000E8C0843611F0893641F5F80137FE07C08A
:1039F00060817181828193810C5F1F4F08C060815B
:103A00007181072E000C880B990B0E5F1F4FF32D51
:103A1000FF763F2E97FF09C0909580957095619530
:103A20007F4F8F4F9F4FF0683F2E2AE030E0A30179
:103A30000E943F1E882E861845C0853731F4232DFD
:103A40002F7EB22E2AE030E025C0932D997FB92E2B
:103A50008F36C1F018F4883579F0B5C0803719F089
:103A6000883721F0B0C0E92FE061BE2EB4FE0DC052
:103A7000FB2DF460BF2E09C034FE0AC0292F26603A
:103A8000B22E06C028E030E005C020E130E002C0E0
:103A900020E132E0F801B7FE07C0608171818281C8
:103AA00093810C5F1F4F06C06081718180E090E0C0
:103AB0000E5F1F4FA3010E943F1E882E8618FB2D0C
:103AC000FF773F2E36FE0DC0232D2E7FA22E8914A8
:103AD00058F434FE0BC032FC09C0832D8E7EA82E14
:103AE00005C0B82CA32C03C0B82C01C0B92CA4FE6F
:103AF0000FC0FE01E80DF11D8081803321F49A2D65
:103B0000997EA92E09C0A2FE06C0B394B39404C046
:103B10008A2D867809F0B394A3FC11C0A0FE06C0DC
:103B2000B21488F4280C922C9B180EC0B21460F4C6
:103B3000B60180E290E00E94031EB394F7CFB21466
:103B400018F42B1802C0982C212CA4FE10C0B6012A
:103B500080E390E00E94031EA2FE17C0A1FC03C0F8
:103B600088E790E002C088E590E0B6010CC08A2D9D
:103B7000867859F0A1FE02C08BE201C080E2A7FC6A
:103B80008DE2B60190E00E94031E891438F4B6015C
:103B900080E390E00E94031E9A94F7CF8A94F30189
:103BA000E80DF11D8081B60190E00E94031E811096
:103BB000F5CF222009F442CEB60180E290E00E94C7
:103BC000031E2A94F6CFF6018681978102C08FEFFB
:103BD0009FEF2B96E2E10C946018FC010590615078
:103BE00070400110D8F7809590958E0F9F1F089513
:103BF000FC016150704001900110D8F780959095BC
:103C00008E0F9F1F08950F931F93CF93DF93FB0198
:103C1000238121FD03C08FEF9FEF2CC022FF16C030
:103C200046815781248135814217530744F4A0818E
:103C3000B1819D012F5F3F4F318320838C9326817B
:103C400037812F5F3F4F3783268314C08B01EC01F0
:103C5000FB010084F185E02D0995892BE1F6D8015F
:103C600016968D919C911797019617969C938E931B
:103C70001697CE01DF91CF911F910F910895FA0110
:103C8000AA27283051F1203181F1E8946F936E7F9B
:103C90006E5F7F4F8F4F9F4FAF4FB1E03ED0B4E08C
:103CA0003CD0670F781F891F9A1FA11D680F791FCD
:103CB0008A1F911DA11D6A0F711D811D911DA11DDE
:103CC00020D009F468943F912AE0269F11243019EE
:103CD000305D3193DEF6CF010895462F4770405D89
:103CE0004193B3E00FD0C9F7F6CF462F4F70405D38
:103CF0004A3318F0495D31FD4052419302D0A9F793
:103D0000EACFB4E0A6959795879577956795BA958C
:103D1000C9F700976105710508959B01AC010A2E52
:103D200006945795479537952795BA95C9F7620F29
:0E3D3000731F841F951FA01D0895F894FFCFE8
:103D3E000010181C0000000000010307000703011B
:103D4E000002060E1E0E0602000E0A0E00000000F5
:103D5E0000040404041F0E04040E1F0404040400D3
:103D6E0001010000484200004842010000803F006F
:103D7E000030042000202050524F504F5243494FE4
:103D8E004E414C2020002020204849535445524596
:103D9E0053452020202000202053656C6563696FF9
:103DAE006E61646F3A202000543A003E3E3E003C65
:103DBE003C3C002000202020003E003C0046414EAE
:103DCE00004845415400424F544800533A003000D9
:103DDE00310050563A0053503A00204E657720532A
:103DEE00657420506F696E742020002020202044BE
:103DFE00697361626C6564202020200020202020E1
:103E0E00456E61626C6564202020202000202044D5
:103E1E007269766572205374617475732000202563
:103E2E0000202025204859535445524553495320CC
:103E3E002000202020204B703A2000204E65772055
:103E4E0050726F702E204761696E2000202020482E
:103E5E006561743A004F4646004F4E0020202020E8
:103E6E0046616E3A0020204D616E75616C204D6F7B
:103E7E0064652020200000401454004010500000C3
:103E8E0000002D0B000B3101D40AF80AE40AD50A02
:103E9E0000000000850F470F31013001CB0F710F6D
:103EAE00B10F920F202054656D706572617475723A
:103EBE00612020200020436F6E74726F6C61646FFE
:103ECE0072206465200020646520506173736F203A
:103EDE0046756E646F2000556E69766572736964FF
:103EEE00616465002020204869737465726573658E
:103EFE00203E3E3E003C3C3C2050726F706F726321
:103F0E00696F6E616C000A120B0C0E0D100F000122
:083F1E000302302573002000AE
:00000001FF
